{
	"data": {
		"bytecode": {
			"linkReferences": {},
			"object": "60806040525f6009555f600a555f600b553480156200001c575f80fd5b506040518060400160405280601181526020017f4d7974686963616c4372656174757265730000000000000000000000000000008152506040518060400160405280600481526020017f4d59544800000000000000000000000000000000000000000000000000000000815250335f73ffffffffffffffffffffffffffffffffffffffff168173ffffffffffffffffffffffffffffffffffffffff1603620000fd575f6040517f1e4fbdf7000000000000000000000000000000000000000000000000000000008152600401620000f491906200023f565b60405180910390fd5b6200010e816200013b60201b60201c565b508160019081620001209190620004be565b508060029081620001329190620004be565b505050620005a2565b5f805f9054906101000a900473ffffffffffffffffffffffffffffffffffffffff169050815f806101000a81548173ffffffffffffffffffffffffffffffffffffffff021916908373ffffffffffffffffffffffffffffffffffffffff1602179055508173ffffffffffffffffffffffffffffffffffffffff168173ffffffffffffffffffffffffffffffffffffffff167f8be0079c531659141344cd1fd0a4f28419497f9722a3daafe3b4186f6b6457e060405160405180910390a35050565b5f73ffffffffffffffffffffffffffffffffffffffff82169050919050565b5f6200022782620001fc565b9050919050565b62000239816200021b565b82525050565b5f602082019050620002545f8301846200022e565b92915050565b5f81519050919050565b7f4e487b71000000000000000000000000000000000000000000000000000000005f52604160045260245ffd5b7f4e487b71000000000000000000000000000000000000000000000000000000005f52602260045260245ffd5b5f6002820490506001821680620002d657607f821691505b602082108103620002ec57620002eb62000291565b5b50919050565b5f819050815f5260205f209050919050565b5f6020601f8301049050919050565b5f82821b905092915050565b5f60088302620003507fffffffffffffffffffffffffffffffffffffffffffffffffffffffffffffffff8262000313565b6200035c868362000313565b95508019841693508086168417925050509392505050565b5f819050919050565b5f819050919050565b5f620003a6620003a06200039a8462000374565b6200037d565b62000374565b9050919050565b5f819050919050565b620003c18362000386565b620003d9620003d082620003ad565b8484546200031f565b825550505050565b5f90565b620003ef620003e1565b620003fc818484620003b6565b505050565b5b818110156200042357620004175f82620003e5565b60018101905062000402565b5050565b601f82111562000472576200043c81620002f2565b620004478462000304565b8101602085101562000457578190505b6200046f620004668562000304565b83018262000401565b50505b505050565b5f82821c905092915050565b5f620004945f198460080262000477565b1980831691505092915050565b5f620004ae838362000483565b9150826002028217905092915050565b620004c9826200025a565b67ffffffffffffffff811115620004e557620004e462000264565b5b620004f18254620002be565b620004fe82828562000427565b5f60209050601f83116001811462000534575f84156200051f578287015190505b6200052b8582620004a1565b8655506200059a565b601f1984166200054486620002f2565b5f5b828110156200056d5784890151825560018201915060208501945060208101905062000546565b868310156200058d578489015162000589601f89168262000483565b8355505b6001600288020188555050505b505050505050565b612e6580620005b05f395ff3fe608060405234801561000f575f80fd5b50600436106101cd575f3560e01c806395d89b4111610102578063c87b56dd116100a0578063e9aac1021161006f578063e9aac1021461051d578063f2fde38b1461053b578063feb4ee3014610557578063ff552e4414610573576101cd565b8063c87b56dd14610481578063c91dbd1d146104b1578063e5243684146104cf578063e985e9c5146104ed576101cd565b8063afb0a369116100dc578063afb0a369146103f9578063b51cff3814610429578063b88d4fde14610447578063c1f00f6c14610463576101cd565b806395d89b41146103a1578063a22cb465146103bf578063a7877fcd146103db576101cd565b806336455fbe1161016f57806366435c061161014957806366435c061461032b57806370a0823114610349578063715018a6146103795780638da5cb5b14610383576101cd565b806336455fbe146102c357806342842e0e146102df5780636352211e146102fb576101cd565b8063095ea7b3116101ab578063095ea7b31461024f57806323b872dd1461026b5780632f3e1b631461028757806332cb6b0c146102a5576101cd565b806301ffc9a7146101d157806306fdde0314610201578063081812fc1461021f575b5f80fd5b6101eb60048036038101906101e691906120d0565b610591565b6040516101f89190612115565b60405180910390f35b6102096105f1565b60405161021691906121b8565b60405180910390f35b6102396004803603810190610234919061220b565b610681565b6040516102469190612275565b60405180910390f35b610269600480360381019061026491906122b8565b61069c565b005b610285600480360381019061028091906122f6565b6106b2565b005b61028f6107b1565b60405161029c9190612355565b60405180910390f35b6102ad6107b7565b6040516102ba9190612355565b60405180910390f35b6102dd60048036038101906102d891906122b8565b6107bc565b005b6102f960048036038101906102f491906122f6565b610864565b005b6103156004803603810190610310919061220b565b610883565b6040516103229190612275565b60405180910390f35b610333610894565b6040516103409190612355565b60405180910390f35b610363600480360381019061035e919061236e565b61089a565b6040516103709190612355565b60405180910390f35b610381610950565b005b61038b610963565b6040516103989190612275565b60405180910390f35b6103a961098a565b6040516103b691906121b8565b60405180910390f35b6103d960048036038101906103d491906123c3565b610a1a565b005b6103e3610a30565b6040516103f09190612355565b60405180910390f35b610413600480360381019061040e919061220b565b610a4d565b6040516104209190612355565b60405180910390f35b610431610a62565b60405161043e9190612355565b60405180910390f35b610461600480360381019061045c919061252d565b610a67565b005b61046b610a84565b6040516104789190612355565b60405180910390f35b61049b6004803603810190610496919061220b565b610a89565b6040516104a891906121b8565b60405180910390f35b6104b9610b94565b6040516104c69190612355565b60405180910390f35b6104d7610ba5565b6040516104e49190612355565b60405180910390f35b610507600480360381019061050291906125ad565b610baa565b6040516105149190612115565b60405180910390f35b610525610c38565b6040516105329190612355565b60405180910390f35b6105556004803603810190610550919061236e565b610c3e565b005b610571600480360381019061056c9190612648565b610cc2565b005b61057b610ddd565b6040516105889190612355565b60405180910390f35b5f634906490660e01b7bffffffffffffffffffffffffffffffffffffffffffffffffffffffff1916827bffffffffffffffffffffffffffffffffffffffffffffffffffffffff191614806105ea57506105e982610de2565b5b9050919050565b606060018054610600906126e6565b80601f016020809104026020016040519081016040528092919081815260200182805461062c906126e6565b80156106775780601f1061064e57610100808354040283529160200191610677565b820191905f5260205f20905b81548152906001019060200180831161065a57829003601f168201915b5050505050905090565b5f61068b82610ec3565b5061069582610f49565b9050919050565b6106ae82826106a9610f82565b610f89565b5050565b5f73ffffffffffffffffffffffffffffffffffffffff168273ffffffffffffffffffffffffffffffffffffffff1603610722575f6040517f64a0ae920000000000000000000000000000000000000000000000000000000081526004016107199190612275565b60405180910390fd5b5f6107358383610730610f82565b610f9b565b90508373ffffffffffffffffffffffffffffffffffffffff168173ffffffffffffffffffffffffffffffffffffffff16146107ab578382826040517f64283d7b0000000000000000000000000000000000000000000000000000000081526004016107a293929190612716565b60405180910390fd5b50505050565b600a5481565b606481565b6107c46111a6565b5f5b8181101561085f575f6107d9600861122d565b90506064811061081e576040517f08c379a000000000000000000000000000000000000000000000000000000000815260040161081590612795565b60405180910390fd5b5f610827611239565b90506108338583611318565b61083d8282611335565b610847600861134f565b61085081611363565b505080806001019150506107c6565b505050565b61087e83838360405180602001604052805f815250610a67565b505050565b5f61088d82610ec3565b9050919050565b60095481565b5f8073ffffffffffffffffffffffffffffffffffffffff168273ffffffffffffffffffffffffffffffffffffffff160361090b575f6040517f89c62b640000000000000000000000000000000000000000000000000000000081526004016109029190612275565b60405180910390fd5b60045f8373ffffffffffffffffffffffffffffffffffffffff1673ffffffffffffffffffffffffffffffffffffffff1681526020019081526020015f20549050919050565b6109586111a6565b6109615f6113cf565b565b5f805f9054906101000a900473ffffffffffffffffffffffffffffffffffffffff16905090565b606060028054610999906126e6565b80601f01602080910402602001604051908101604052809291908181526020018280546109c5906126e6565b8015610a105780601f106109e757610100808354040283529160200191610a10565b820191905f5260205f20905b8154815290600101906020018083116109f357829003601f168201915b5050505050905090565b610a2c610a25610f82565b8383611490565b5050565b60016009605a610a4091906127e0565b610a4a91906127e0565b81565b600c602052805f5260405f205f915090505481565b600981565b610a728484846106b2565b610a7e848484846115f9565b50505050565b605a81565b6060610a9482610ec3565b505f60075f8481526020019081526020015f208054610ab2906126e6565b80601f0160208091040260200160405190810160405280929190818152602001828054610ade906126e6565b8015610b295780601f10610b0057610100808354040283529160200191610b29565b820191905f5260205f20905b815481529060010190602001808311610b0c57829003601f168201915b505050505090505f610b396117ab565b90505f815103610b4d578192505050610b8f565b5f82511115610b81578082604051602001610b6992919061284d565b60405160208183030381529060405292505050610b8f565b610b8a846117c1565b925050505b919050565b6009605a610ba291906127e0565b81565b605a81565b5f60065f8473ffffffffffffffffffffffffffffffffffffffff1673ffffffffffffffffffffffffffffffffffffffff1681526020019081526020015f205f8373ffffffffffffffffffffffffffffffffffffffff1673ffffffffffffffffffffffffffffffffffffffff1681526020019081526020015f205f9054906101000a900460ff16905092915050565b600b5481565b610c466111a6565b5f73ffffffffffffffffffffffffffffffffffffffff168173ffffffffffffffffffffffffffffffffffffffff1603610cb6575f6040517f1e4fbdf7000000000000000000000000000000000000000000000000000000008152600401610cad9190612275565b60405180910390fd5b610cbf816113cf565b50565b610cca6111a6565b5f610cd5600861122d565b905060648110610d1a576040517f08c379a0000000000000000000000000000000000000000000000000000000008152600401610d1190612795565b60405180910390fd5b610d2384611827565b610d62576040517f08c379a0000000000000000000000000000000000000000000000000000000008152600401610d59906128e0565b60405180910390fd5b610d6c8582611318565b610db98184848080601f0160208091040260200160405190810160405280939291908181526020018383808284375f81840152601f19601f820116905080830192505050505050506118ca565b610dc38185611335565b610dcd600861134f565b610dd684611363565b5050505050565b600181565b5f7f80ac58cd000000000000000000000000000000000000000000000000000000007bffffffffffffffffffffffffffffffffffffffffffffffffffffffff1916827bffffffffffffffffffffffffffffffffffffffffffffffffffffffff19161480610eac57507f5b5e139f000000000000000000000000000000000000000000000000000000007bffffffffffffffffffffffffffffffffffffffffffffffffffffffff1916827bffffffffffffffffffffffffffffffffffffffffffffffffffffffff1916145b80610ebc5750610ebb82611924565b5b9050919050565b5f80610ece8361198d565b90505f73ffffffffffffffffffffffffffffffffffffffff168173ffffffffffffffffffffffffffffffffffffffff1603610f4057826040517f7e273289000000000000000000000000000000000000000000000000000000008152600401610f379190612355565b60405180910390fd5b80915050919050565b5f60055f8381526020019081526020015f205f9054906101000a900473ffffffffffffffffffffffffffffffffffffffff169050919050565b5f33905090565b610f9683838360016119c6565b505050565b5f80610fa68461198d565b90505f73ffffffffffffffffffffffffffffffffffffffff168373ffffffffffffffffffffffffffffffffffffffff1614610fe757610fe6818486611b85565b5b5f73ffffffffffffffffffffffffffffffffffffffff168173ffffffffffffffffffffffffffffffffffffffff1614611072576110265f855f806119c6565b600160045f8373ffffffffffffffffffffffffffffffffffffffff1673ffffffffffffffffffffffffffffffffffffffff1681526020019081526020015f205f82825403925050819055505b5f73ffffffffffffffffffffffffffffffffffffffff168573ffffffffffffffffffffffffffffffffffffffff16146110f157600160045f8773ffffffffffffffffffffffffffffffffffffffff1673ffffffffffffffffffffffffffffffffffffffff1681526020019081526020015f205f82825401925050819055505b8460035f8681526020019081526020015f205f6101000a81548173ffffffffffffffffffffffffffffffffffffffff021916908373ffffffffffffffffffffffffffffffffffffffff160217905550838573ffffffffffffffffffffffffffffffffffffffff168273ffffffffffffffffffffffffffffffffffffffff167fddf252ad1be2c89b69c2b068fc378daa952ba7f163c4a11628f55a4df523b3ef60405160405180910390a4809150509392505050565b6111ae610f82565b73ffffffffffffffffffffffffffffffffffffffff166111cc610963565b73ffffffffffffffffffffffffffffffffffffffff161461122b576111ef610f82565b6040517f118cdaa70000000000000000000000000000000000000000000000000000000081526004016112229190612275565b60405180910390fd5b565b5f815f01549050919050565b5f8060014361124891906128fe565b40604051602001611259919061295a565b604051602081830303815290604052805190602001205f1c90505f61127d82611c48565b90505f6064605a61128e9190612974565b8161129991906127e0565b9050606460096112a99190612974565b816112b491906127e0565b9050606460096112c49190612974565b816112cf91906127e0565b8210156112e1575f9350505050611315565b606460016112ef9190612974565b816112fa91906127e0565b82101561130d5760019350505050611315565b600293505050505b90565b611331828260405180602001604052805f815250611c81565b5050565b80600c5f8481526020019081526020015f20819055505050565b6001815f015f828254019250508190555050565b5f81036113865760095f81548092919061137c906129b5565b91905055506113cc565b600181036113aa57600a5f8154809291906113a0906129b5565b91905055506113cb565b600281036113ca57600b5f8154809291906113c4906129b5565b91905055505b5b5b50565b5f805f9054906101000a900473ffffffffffffffffffffffffffffffffffffffff169050815f806101000a81548173ffffffffffffffffffffffffffffffffffffffff021916908373ffffffffffffffffffffffffffffffffffffffff1602179055508173ffffffffffffffffffffffffffffffffffffffff168173ffffffffffffffffffffffffffffffffffffffff167f8be0079c531659141344cd1fd0a4f28419497f9722a3daafe3b4186f6b6457e060405160405180910390a35050565b5f73ffffffffffffffffffffffffffffffffffffffff168273ffffffffffffffffffffffffffffffffffffffff160361150057816040517f5b08ba180000000000000000000000000000000000000000000000000000000081526004016114f79190612275565b60405180910390fd5b8060065f8573ffffffffffffffffffffffffffffffffffffffff1673ffffffffffffffffffffffffffffffffffffffff1681526020019081526020015f205f8473ffffffffffffffffffffffffffffffffffffffff1673ffffffffffffffffffffffffffffffffffffffff1681526020019081526020015f205f6101000a81548160ff0219169083151502179055508173ffffffffffffffffffffffffffffffffffffffff168373ffffffffffffffffffffffffffffffffffffffff167f17307eab39ab6107e8899845ad3d59bd9653f200f220920489ca2b5937696c31836040516115ec9190612115565b60405180910390a3505050565b5f8373ffffffffffffffffffffffffffffffffffffffff163b11156117a5578273ffffffffffffffffffffffffffffffffffffffff1663150b7a0261163c610f82565b8685856040518563ffffffff1660e01b815260040161165e9493929190612a4e565b6020604051808303815f875af192505050801561169957506040513d601f19601f820116820180604052508101906116969190612aac565b60015b61171a573d805f81146116c7576040519150601f19603f3d011682016040523d82523d5f602084013e6116cc565b606091505b505f81510361171257836040517f64a0ae920000000000000000000000000000000000000000000000000000000081526004016117099190612275565b60405180910390fd5b805181602001fd5b63150b7a0260e01b7bffffffffffffffffffffffffffffffffffffffffffffffffffffffff1916817bffffffffffffffffffffffffffffffffffffffffffffffffffffffff1916146117a357836040517f64a0ae9200000000000000000000000000000000000000000000000000000000815260040161179a9190612275565b60405180910390fd5b505b50505050565b606060405180602001604052805f815250905090565b60606117cc82610ec3565b505f6117d66117ab565b90505f8151116117f45760405180602001604052805f81525061181f565b806117fe84611c9c565b60405160200161180f92919061284d565b6040516020818303038152906040525b915050919050565b5f80820361183c57605a6009541090506118c5565b6001820361185d576009605a61185291906127e0565b600a541090506118c5565b6002820361188a5760016009605a61187591906127e0565b61187f91906127e0565b600b541090506118c5565b6040517f08c379a00000000000000000000000000000000000000000000000000000000081526004016118bc90612b21565b60405180910390fd5b919050565b8060075f8481526020019081526020015f2090816118e89190612cdc565b507ff8e1a15aba9398e019f0b49df1a4fde98ee17ae345cb5f6b5e2c27f5033e8ce7826040516119189190612355565b60405180910390a15050565b5f7f01ffc9a7000000000000000000000000000000000000000000000000000000007bffffffffffffffffffffffffffffffffffffffffffffffffffffffff1916827bffffffffffffffffffffffffffffffffffffffffffffffffffffffff1916149050919050565b5f60035f8381526020019081526020015f205f9054906101000a900473ffffffffffffffffffffffffffffffffffffffff169050919050565b80806119fe57505f73ffffffffffffffffffffffffffffffffffffffff168273ffffffffffffffffffffffffffffffffffffffff1614155b15611b30575f611a0d84610ec3565b90505f73ffffffffffffffffffffffffffffffffffffffff168373ffffffffffffffffffffffffffffffffffffffff1614158015611a7757508273ffffffffffffffffffffffffffffffffffffffff168173ffffffffffffffffffffffffffffffffffffffff1614155b8015611a8a5750611a888184610baa565b155b15611acc57826040517fa9fbf51f000000000000000000000000000000000000000000000000000000008152600401611ac39190612275565b60405180910390fd5b8115611b2e57838573ffffffffffffffffffffffffffffffffffffffff168273ffffffffffffffffffffffffffffffffffffffff167f8c5be1e5ebec7d5bd14f71427d1e84f3dd0314c0f7b2291e5b200ac8c7c3b92560405160405180910390a45b505b8360055f8581526020019081526020015f205f6101000a81548173ffffffffffffffffffffffffffffffffffffffff021916908373ffffffffffffffffffffffffffffffffffffffff16021790555050505050565b611b90838383611d66565b611c43575f73ffffffffffffffffffffffffffffffffffffffff168373ffffffffffffffffffffffffffffffffffffffff1603611c0457806040517f7e273289000000000000000000000000000000000000000000000000000000008152600401611bfb9190612355565b60405180910390fd5b81816040517f177e802f000000000000000000000000000000000000000000000000000000008152600401611c3a929190612dab565b60405180910390fd5b505050565b5f807fffffffffffffffffffffffffffffffffffffffffffffffffffffffffffffffff83611c769190612dff565b905080915050919050565b611c8b8383611e26565b611c975f8484846115f9565b505050565b60605f6001611caa84611f19565b0190505f8167ffffffffffffffff811115611cc857611cc7612409565b5b6040519080825280601f01601f191660200182016040528015611cfa5781602001600182028036833780820191505090505b5090505f82602001820190505b600115611d5b578080600190039150507f3031323334353637383961626364656600000000000000000000000000000000600a86061a8153600a8581611d5057611d4f612dd2565b5b0494505f8503611d07575b819350505050919050565b5f8073ffffffffffffffffffffffffffffffffffffffff168373ffffffffffffffffffffffffffffffffffffffff1614158015611e1d57508273ffffffffffffffffffffffffffffffffffffffff168473ffffffffffffffffffffffffffffffffffffffff161480611dde5750611ddd8484610baa565b5b80611e1c57508273ffffffffffffffffffffffffffffffffffffffff16611e0483610f49565b73ffffffffffffffffffffffffffffffffffffffff16145b5b90509392505050565b5f73ffffffffffffffffffffffffffffffffffffffff168273ffffffffffffffffffffffffffffffffffffffff1603611e96575f6040517f64a0ae92000000000000000000000000000000000000000000000000000000008152600401611e8d9190612275565b60405180910390fd5b5f611ea283835f610f9b565b90505f73ffffffffffffffffffffffffffffffffffffffff168173ffffffffffffffffffffffffffffffffffffffff1614611f14575f6040517f73c6ac6e000000000000000000000000000000000000000000000000000000008152600401611f0b9190612275565b60405180910390fd5b505050565b5f805f90507a184f03e93ff9f4daa797ed6e38ed64bf6a1f0100000000000000008310611f75577a184f03e93ff9f4daa797ed6e38ed64bf6a1f0100000000000000008381611f6b57611f6a612dd2565b5b0492506040810190505b6d04ee2d6d415b85acef81000000008310611fb2576d04ee2d6d415b85acef81000000008381611fa857611fa7612dd2565b5b0492506020810190505b662386f26fc100008310611fe157662386f26fc100008381611fd757611fd6612dd2565b5b0492506010810190505b6305f5e100831061200a576305f5e100838161200057611fff612dd2565b5b0492506008810190505b612710831061202f57612710838161202557612024612dd2565b5b0492506004810190505b60648310612052576064838161204857612047612dd2565b5b0492506002810190505b600a8310612061576001810190505b80915050919050565b5f604051905090565b5f80fd5b5f80fd5b5f7fffffffff0000000000000000000000000000000000000000000000000000000082169050919050565b6120af8161207b565b81146120b9575f80fd5b50565b5f813590506120ca816120a6565b92915050565b5f602082840312156120e5576120e4612073565b5b5f6120f2848285016120bc565b91505092915050565b5f8115159050919050565b61210f816120fb565b82525050565b5f6020820190506121285f830184612106565b92915050565b5f81519050919050565b5f82825260208201905092915050565b5f5b8381101561216557808201518184015260208101905061214a565b5f8484015250505050565b5f601f19601f8301169050919050565b5f61218a8261212e565b6121948185612138565b93506121a4818560208601612148565b6121ad81612170565b840191505092915050565b5f6020820190508181035f8301526121d08184612180565b905092915050565b5f819050919050565b6121ea816121d8565b81146121f4575f80fd5b50565b5f81359050612205816121e1565b92915050565b5f602082840312156122205761221f612073565b5b5f61222d848285016121f7565b91505092915050565b5f73ffffffffffffffffffffffffffffffffffffffff82169050919050565b5f61225f82612236565b9050919050565b61226f81612255565b82525050565b5f6020820190506122885f830184612266565b92915050565b61229781612255565b81146122a1575f80fd5b50565b5f813590506122b28161228e565b92915050565b5f80604083850312156122ce576122cd612073565b5b5f6122db858286016122a4565b92505060206122ec858286016121f7565b9150509250929050565b5f805f6060848603121561230d5761230c612073565b5b5f61231a868287016122a4565b935050602061232b868287016122a4565b925050604061233c868287016121f7565b9150509250925092565b61234f816121d8565b82525050565b5f6020820190506123685f830184612346565b92915050565b5f6020828403121561238357612382612073565b5b5f612390848285016122a4565b91505092915050565b6123a2816120fb565b81146123ac575f80fd5b50565b5f813590506123bd81612399565b92915050565b5f80604083850312156123d9576123d8612073565b5b5f6123e6858286016122a4565b92505060206123f7858286016123af565b9150509250929050565b5f80fd5b5f80fd5b7f4e487b71000000000000000000000000000000000000000000000000000000005f52604160045260245ffd5b61243f82612170565b810181811067ffffffffffffffff8211171561245e5761245d612409565b5b80604052505050565b5f61247061206a565b905061247c8282612436565b919050565b5f67ffffffffffffffff82111561249b5761249a612409565b5b6124a482612170565b9050602081019050919050565b828183375f83830152505050565b5f6124d16124cc84612481565b612467565b9050828152602081018484840111156124ed576124ec612405565b5b6124f88482856124b1565b509392505050565b5f82601f83011261251457612513612401565b5b81356125248482602086016124bf565b91505092915050565b5f805f806080858703121561254557612544612073565b5b5f612552878288016122a4565b9450506020612563878288016122a4565b9350506040612574878288016121f7565b925050606085013567ffffffffffffffff81111561259557612594612077565b5b6125a187828801612500565b91505092959194509250565b5f80604083850312156125c3576125c2612073565b5b5f6125d0858286016122a4565b92505060206125e1858286016122a4565b9150509250929050565b5f80fd5b5f80fd5b5f8083601f84011261260857612607612401565b5b8235905067ffffffffffffffff811115612625576126246125eb565b5b602083019150836001820283011115612641576126406125ef565b5b9250929050565b5f805f80606085870312156126605761265f612073565b5b5f61266d878288016122a4565b945050602061267e878288016121f7565b935050604085013567ffffffffffffffff81111561269f5761269e612077565b5b6126ab878288016125f3565b925092505092959194509250565b7f4e487b71000000000000000000000000000000000000000000000000000000005f52602260045260245ffd5b5f60028204905060018216806126fd57607f821691505b6020821081036127105761270f6126b9565b5b50919050565b5f6060820190506127295f830186612266565b6127366020830185612346565b6127436040830184612266565b949350505050565b7f4d696e74696e67206c696d6974207265616368656400000000000000000000005f82015250565b5f61277f601583612138565b915061278a8261274b565b602082019050919050565b5f6020820190508181035f8301526127ac81612773565b9050919050565b7f4e487b71000000000000000000000000000000000000000000000000000000005f52601160045260245ffd5b5f6127ea826121d8565b91506127f5836121d8565b925082820190508082111561280d5761280c6127b3565b5b92915050565b5f81905092915050565b5f6128278261212e565b6128318185612813565b9350612841818560208601612148565b80840191505092915050565b5f612858828561281d565b9150612864828461281d565b91508190509392505050565b7f4d617820737570706c7920666f722074686973207261726974792074696572205f8201527f686173206265656e207265616368656400000000000000000000000000000000602082015250565b5f6128ca603083612138565b91506128d582612870565b604082019050919050565b5f6020820190508181035f8301526128f7816128be565b9050919050565b5f612908826121d8565b9150612913836121d8565b925082820390508181111561292b5761292a6127b3565b5b92915050565b5f819050919050565b5f819050919050565b61295461294f82612931565b61293a565b82525050565b5f6129658284612943565b60208201915081905092915050565b5f61297e826121d8565b9150612989836121d8565b9250828202612997816121d8565b915082820484148315176129ae576129ad6127b3565b5b5092915050565b5f6129bf826121d8565b91507fffffffffffffffffffffffffffffffffffffffffffffffffffffffffffffffff82036129f1576129f06127b3565b5b600182019050919050565b5f81519050919050565b5f82825260208201905092915050565b5f612a20826129fc565b612a2a8185612a06565b9350612a3a818560208601612148565b612a4381612170565b840191505092915050565b5f608082019050612a615f830187612266565b612a6e6020830186612266565b612a7b6040830185612346565b8181036060830152612a8d8184612a16565b905095945050505050565b5f81519050612aa6816120a6565b92915050565b5f60208284031215612ac157612ac0612073565b5b5f612ace84828501612a98565b91505092915050565b7f496e76616c6964207261726974792074696572000000000000000000000000005f82015250565b5f612b0b601383612138565b9150612b1682612ad7565b602082019050919050565b5f6020820190508181035f830152612b3881612aff565b9050919050565b5f819050815f5260205f209050919050565b5f6020601f8301049050919050565b5f82821b905092915050565b5f60088302612b9b7fffffffffffffffffffffffffffffffffffffffffffffffffffffffffffffffff82612b60565b612ba58683612b60565b95508019841693508086168417925050509392505050565b5f819050919050565b5f612be0612bdb612bd6846121d8565b612bbd565b6121d8565b9050919050565b5f819050919050565b612bf983612bc6565b612c0d612c0582612be7565b848454612b6c565b825550505050565b5f90565b612c21612c15565b612c2c818484612bf0565b505050565b5b81811015612c4f57612c445f82612c19565b600181019050612c32565b5050565b601f821115612c9457612c6581612b3f565b612c6e84612b51565b81016020851015612c7d578190505b612c91612c8985612b51565b830182612c31565b50505b505050565b5f82821c905092915050565b5f612cb45f1984600802612c99565b1980831691505092915050565b5f612ccc8383612ca5565b9150826002028217905092915050565b612ce58261212e565b67ffffffffffffffff811115612cfe57612cfd612409565b5b612d0882546126e6565b612d13828285612c53565b5f60209050601f831160018114612d44575f8415612d32578287015190505b612d3c8582612cc1565b865550612da3565b601f198416612d5286612b3f565b5f5b82811015612d7957848901518255600182019150602085019450602081019050612d54565b86831015612d965784890151612d92601f891682612ca5565b8355505b6001600288020188555050505b505050505050565b5f604082019050612dbe5f830185612266565b612dcb6020830184612346565b9392505050565b7f4e487b71000000000000000000000000000000000000000000000000000000005f52601260045260245ffd5b5f612e09826121d8565b9150612e14836121d8565b925082612e2457612e23612dd2565b5b82820490509291505056fea26469706673582212204117f8ebffab77c6eb87292d167619c37caea5691f5fc219a39f77748abde86564736f6c63430008180033",
			"opcodes": "PUSH1 0x80 PUSH1 0x40 MSTORE PUSH0 PUSH1 0x9 SSTORE PUSH0 PUSH1 0xA SSTORE PUSH0 PUSH1 0xB SSTORE CALLVALUE DUP1 ISZERO PUSH3 0x1C JUMPI PUSH0 DUP1 REVERT JUMPDEST POP PUSH1 0x40 MLOAD DUP1 PUSH1 0x40 ADD PUSH1 0x40 MSTORE DUP1 PUSH1 0x11 DUP2 MSTORE PUSH1 0x20 ADD PUSH32 0x4D7974686963616C437265617475726573000000000000000000000000000000 DUP2 MSTORE POP PUSH1 0x40 MLOAD DUP1 PUSH1 0x40 ADD PUSH1 0x40 MSTORE DUP1 PUSH1 0x4 DUP2 MSTORE PUSH1 0x20 ADD PUSH32 0x4D59544800000000000000000000000000000000000000000000000000000000 DUP2 MSTORE POP CALLER PUSH0 PUSH20 0xFFFFFFFFFFFFFFFFFFFFFFFFFFFFFFFFFFFFFFFF AND DUP2 PUSH20 0xFFFFFFFFFFFFFFFFFFFFFFFFFFFFFFFFFFFFFFFF AND SUB PUSH3 0xFD JUMPI PUSH0 PUSH1 0x40 MLOAD PUSH32 0x1E4FBDF700000000000000000000000000000000000000000000000000000000 DUP2 MSTORE PUSH1 0x4 ADD PUSH3 0xF4 SWAP2 SWAP1 PUSH3 0x23F JUMP JUMPDEST PUSH1 0x40 MLOAD DUP1 SWAP2 SUB SWAP1 REVERT JUMPDEST PUSH3 0x10E DUP2 PUSH3 0x13B PUSH1 0x20 SHL PUSH1 0x20 SHR JUMP JUMPDEST POP DUP2 PUSH1 0x1 SWAP1 DUP2 PUSH3 0x120 SWAP2 SWAP1 PUSH3 0x4BE JUMP JUMPDEST POP DUP1 PUSH1 0x2 SWAP1 DUP2 PUSH3 0x132 SWAP2 SWAP1 PUSH3 0x4BE JUMP JUMPDEST POP POP POP PUSH3 0x5A2 JUMP JUMPDEST PUSH0 DUP1 PUSH0 SWAP1 SLOAD SWAP1 PUSH2 0x100 EXP SWAP1 DIV PUSH20 0xFFFFFFFFFFFFFFFFFFFFFFFFFFFFFFFFFFFFFFFF AND SWAP1 POP DUP2 PUSH0 DUP1 PUSH2 0x100 EXP DUP2 SLOAD DUP2 PUSH20 0xFFFFFFFFFFFFFFFFFFFFFFFFFFFFFFFFFFFFFFFF MUL NOT AND SWAP1 DUP4 PUSH20 0xFFFFFFFFFFFFFFFFFFFFFFFFFFFFFFFFFFFFFFFF AND MUL OR SWAP1 SSTORE POP DUP2 PUSH20 0xFFFFFFFFFFFFFFFFFFFFFFFFFFFFFFFFFFFFFFFF AND DUP2 PUSH20 0xFFFFFFFFFFFFFFFFFFFFFFFFFFFFFFFFFFFFFFFF AND PUSH32 0x8BE0079C531659141344CD1FD0A4F28419497F9722A3DAAFE3B4186F6B6457E0 PUSH1 0x40 MLOAD PUSH1 0x40 MLOAD DUP1 SWAP2 SUB SWAP1 LOG3 POP POP JUMP JUMPDEST PUSH0 PUSH20 0xFFFFFFFFFFFFFFFFFFFFFFFFFFFFFFFFFFFFFFFF DUP3 AND SWAP1 POP SWAP2 SWAP1 POP JUMP JUMPDEST PUSH0 PUSH3 0x227 DUP3 PUSH3 0x1FC JUMP JUMPDEST SWAP1 POP SWAP2 SWAP1 POP JUMP JUMPDEST PUSH3 0x239 DUP2 PUSH3 0x21B JUMP JUMPDEST DUP3 MSTORE POP POP JUMP JUMPDEST PUSH0 PUSH1 0x20 DUP3 ADD SWAP1 POP PUSH3 0x254 PUSH0 DUP4 ADD DUP5 PUSH3 0x22E JUMP JUMPDEST SWAP3 SWAP2 POP POP JUMP JUMPDEST PUSH0 DUP2 MLOAD SWAP1 POP SWAP2 SWAP1 POP JUMP JUMPDEST PUSH32 0x4E487B7100000000000000000000000000000000000000000000000000000000 PUSH0 MSTORE PUSH1 0x41 PUSH1 0x4 MSTORE PUSH1 0x24 PUSH0 REVERT JUMPDEST PUSH32 0x4E487B7100000000000000000000000000000000000000000000000000000000 PUSH0 MSTORE PUSH1 0x22 PUSH1 0x4 MSTORE PUSH1 0x24 PUSH0 REVERT JUMPDEST PUSH0 PUSH1 0x2 DUP3 DIV SWAP1 POP PUSH1 0x1 DUP3 AND DUP1 PUSH3 0x2D6 JUMPI PUSH1 0x7F DUP3 AND SWAP2 POP JUMPDEST PUSH1 0x20 DUP3 LT DUP2 SUB PUSH3 0x2EC JUMPI PUSH3 0x2EB PUSH3 0x291 JUMP JUMPDEST JUMPDEST POP SWAP2 SWAP1 POP JUMP JUMPDEST PUSH0 DUP2 SWAP1 POP DUP2 PUSH0 MSTORE PUSH1 0x20 PUSH0 KECCAK256 SWAP1 POP SWAP2 SWAP1 POP JUMP JUMPDEST PUSH0 PUSH1 0x20 PUSH1 0x1F DUP4 ADD DIV SWAP1 POP SWAP2 SWAP1 POP JUMP JUMPDEST PUSH0 DUP3 DUP3 SHL SWAP1 POP SWAP3 SWAP2 POP POP JUMP JUMPDEST PUSH0 PUSH1 0x8 DUP4 MUL PUSH3 0x350 PUSH32 0xFFFFFFFFFFFFFFFFFFFFFFFFFFFFFFFFFFFFFFFFFFFFFFFFFFFFFFFFFFFFFFFF DUP3 PUSH3 0x313 JUMP JUMPDEST PUSH3 0x35C DUP7 DUP4 PUSH3 0x313 JUMP JUMPDEST SWAP6 POP DUP1 NOT DUP5 AND SWAP4 POP DUP1 DUP7 AND DUP5 OR SWAP3 POP POP POP SWAP4 SWAP3 POP POP POP JUMP JUMPDEST PUSH0 DUP2 SWAP1 POP SWAP2 SWAP1 POP JUMP JUMPDEST PUSH0 DUP2 SWAP1 POP SWAP2 SWAP1 POP JUMP JUMPDEST PUSH0 PUSH3 0x3A6 PUSH3 0x3A0 PUSH3 0x39A DUP5 PUSH3 0x374 JUMP JUMPDEST PUSH3 0x37D JUMP JUMPDEST PUSH3 0x374 JUMP JUMPDEST SWAP1 POP SWAP2 SWAP1 POP JUMP JUMPDEST PUSH0 DUP2 SWAP1 POP SWAP2 SWAP1 POP JUMP JUMPDEST PUSH3 0x3C1 DUP4 PUSH3 0x386 JUMP JUMPDEST PUSH3 0x3D9 PUSH3 0x3D0 DUP3 PUSH3 0x3AD JUMP JUMPDEST DUP5 DUP5 SLOAD PUSH3 0x31F JUMP JUMPDEST DUP3 SSTORE POP POP POP POP JUMP JUMPDEST PUSH0 SWAP1 JUMP JUMPDEST PUSH3 0x3EF PUSH3 0x3E1 JUMP JUMPDEST PUSH3 0x3FC DUP2 DUP5 DUP5 PUSH3 0x3B6 JUMP JUMPDEST POP POP POP JUMP JUMPDEST JUMPDEST DUP2 DUP2 LT ISZERO PUSH3 0x423 JUMPI PUSH3 0x417 PUSH0 DUP3 PUSH3 0x3E5 JUMP JUMPDEST PUSH1 0x1 DUP2 ADD SWAP1 POP PUSH3 0x402 JUMP JUMPDEST POP POP JUMP JUMPDEST PUSH1 0x1F DUP3 GT ISZERO PUSH3 0x472 JUMPI PUSH3 0x43C DUP2 PUSH3 0x2F2 JUMP JUMPDEST PUSH3 0x447 DUP5 PUSH3 0x304 JUMP JUMPDEST DUP2 ADD PUSH1 0x20 DUP6 LT ISZERO PUSH3 0x457 JUMPI DUP2 SWAP1 POP JUMPDEST PUSH3 0x46F PUSH3 0x466 DUP6 PUSH3 0x304 JUMP JUMPDEST DUP4 ADD DUP3 PUSH3 0x401 JUMP JUMPDEST POP POP JUMPDEST POP POP POP JUMP JUMPDEST PUSH0 DUP3 DUP3 SHR SWAP1 POP SWAP3 SWAP2 POP POP JUMP JUMPDEST PUSH0 PUSH3 0x494 PUSH0 NOT DUP5 PUSH1 0x8 MUL PUSH3 0x477 JUMP JUMPDEST NOT DUP1 DUP4 AND SWAP2 POP POP SWAP3 SWAP2 POP POP JUMP JUMPDEST PUSH0 PUSH3 0x4AE DUP4 DUP4 PUSH3 0x483 JUMP JUMPDEST SWAP2 POP DUP3 PUSH1 0x2 MUL DUP3 OR SWAP1 POP SWAP3 SWAP2 POP POP JUMP JUMPDEST PUSH3 0x4C9 DUP3 PUSH3 0x25A JUMP JUMPDEST PUSH8 0xFFFFFFFFFFFFFFFF DUP2 GT ISZERO PUSH3 0x4E5 JUMPI PUSH3 0x4E4 PUSH3 0x264 JUMP JUMPDEST JUMPDEST PUSH3 0x4F1 DUP3 SLOAD PUSH3 0x2BE JUMP JUMPDEST PUSH3 0x4FE DUP3 DUP3 DUP6 PUSH3 0x427 JUMP JUMPDEST PUSH0 PUSH1 0x20 SWAP1 POP PUSH1 0x1F DUP4 GT PUSH1 0x1 DUP2 EQ PUSH3 0x534 JUMPI PUSH0 DUP5 ISZERO PUSH3 0x51F JUMPI DUP3 DUP8 ADD MLOAD SWAP1 POP JUMPDEST PUSH3 0x52B DUP6 DUP3 PUSH3 0x4A1 JUMP JUMPDEST DUP7 SSTORE POP PUSH3 0x59A JUMP JUMPDEST PUSH1 0x1F NOT DUP5 AND PUSH3 0x544 DUP7 PUSH3 0x2F2 JUMP JUMPDEST PUSH0 JUMPDEST DUP3 DUP2 LT ISZERO PUSH3 0x56D JUMPI DUP5 DUP10 ADD MLOAD DUP3 SSTORE PUSH1 0x1 DUP3 ADD SWAP2 POP PUSH1 0x20 DUP6 ADD SWAP5 POP PUSH1 0x20 DUP2 ADD SWAP1 POP PUSH3 0x546 JUMP JUMPDEST DUP7 DUP4 LT ISZERO PUSH3 0x58D JUMPI DUP5 DUP10 ADD MLOAD PUSH3 0x589 PUSH1 0x1F DUP10 AND DUP3 PUSH3 0x483 JUMP JUMPDEST DUP4 SSTORE POP JUMPDEST PUSH1 0x1 PUSH1 0x2 DUP9 MUL ADD DUP9 SSTORE POP POP POP JUMPDEST POP POP POP POP POP POP JUMP JUMPDEST PUSH2 0x2E65 DUP1 PUSH3 0x5B0 PUSH0 CODECOPY PUSH0 RETURN INVALID PUSH1 0x80 PUSH1 0x40 MSTORE CALLVALUE DUP1 ISZERO PUSH2 0xF JUMPI PUSH0 DUP1 REVERT JUMPDEST POP PUSH1 0x4 CALLDATASIZE LT PUSH2 0x1CD JUMPI PUSH0 CALLDATALOAD PUSH1 0xE0 SHR DUP1 PUSH4 0x95D89B41 GT PUSH2 0x102 JUMPI DUP1 PUSH4 0xC87B56DD GT PUSH2 0xA0 JUMPI DUP1 PUSH4 0xE9AAC102 GT PUSH2 0x6F JUMPI DUP1 PUSH4 0xE9AAC102 EQ PUSH2 0x51D JUMPI DUP1 PUSH4 0xF2FDE38B EQ PUSH2 0x53B JUMPI DUP1 PUSH4 0xFEB4EE30 EQ PUSH2 0x557 JUMPI DUP1 PUSH4 0xFF552E44 EQ PUSH2 0x573 JUMPI PUSH2 0x1CD JUMP JUMPDEST DUP1 PUSH4 0xC87B56DD EQ PUSH2 0x481 JUMPI DUP1 PUSH4 0xC91DBD1D EQ PUSH2 0x4B1 JUMPI DUP1 PUSH4 0xE5243684 EQ PUSH2 0x4CF JUMPI DUP1 PUSH4 0xE985E9C5 EQ PUSH2 0x4ED JUMPI PUSH2 0x1CD JUMP JUMPDEST DUP1 PUSH4 0xAFB0A369 GT PUSH2 0xDC JUMPI DUP1 PUSH4 0xAFB0A369 EQ PUSH2 0x3F9 JUMPI DUP1 PUSH4 0xB51CFF38 EQ PUSH2 0x429 JUMPI DUP1 PUSH4 0xB88D4FDE EQ PUSH2 0x447 JUMPI DUP1 PUSH4 0xC1F00F6C EQ PUSH2 0x463 JUMPI PUSH2 0x1CD JUMP JUMPDEST DUP1 PUSH4 0x95D89B41 EQ PUSH2 0x3A1 JUMPI DUP1 PUSH4 0xA22CB465 EQ PUSH2 0x3BF JUMPI DUP1 PUSH4 0xA7877FCD EQ PUSH2 0x3DB JUMPI PUSH2 0x1CD JUMP JUMPDEST DUP1 PUSH4 0x36455FBE GT PUSH2 0x16F JUMPI DUP1 PUSH4 0x66435C06 GT PUSH2 0x149 JUMPI DUP1 PUSH4 0x66435C06 EQ PUSH2 0x32B JUMPI DUP1 PUSH4 0x70A08231 EQ PUSH2 0x349 JUMPI DUP1 PUSH4 0x715018A6 EQ PUSH2 0x379 JUMPI DUP1 PUSH4 0x8DA5CB5B EQ PUSH2 0x383 JUMPI PUSH2 0x1CD JUMP JUMPDEST DUP1 PUSH4 0x36455FBE EQ PUSH2 0x2C3 JUMPI DUP1 PUSH4 0x42842E0E EQ PUSH2 0x2DF JUMPI DUP1 PUSH4 0x6352211E EQ PUSH2 0x2FB JUMPI PUSH2 0x1CD JUMP JUMPDEST DUP1 PUSH4 0x95EA7B3 GT PUSH2 0x1AB JUMPI DUP1 PUSH4 0x95EA7B3 EQ PUSH2 0x24F JUMPI DUP1 PUSH4 0x23B872DD EQ PUSH2 0x26B JUMPI DUP1 PUSH4 0x2F3E1B63 EQ PUSH2 0x287 JUMPI DUP1 PUSH4 0x32CB6B0C EQ PUSH2 0x2A5 JUMPI PUSH2 0x1CD JUMP JUMPDEST DUP1 PUSH4 0x1FFC9A7 EQ PUSH2 0x1D1 JUMPI DUP1 PUSH4 0x6FDDE03 EQ PUSH2 0x201 JUMPI DUP1 PUSH4 0x81812FC EQ PUSH2 0x21F JUMPI JUMPDEST PUSH0 DUP1 REVERT JUMPDEST PUSH2 0x1EB PUSH1 0x4 DUP1 CALLDATASIZE SUB DUP2 ADD SWAP1 PUSH2 0x1E6 SWAP2 SWAP1 PUSH2 0x20D0 JUMP JUMPDEST PUSH2 0x591 JUMP JUMPDEST PUSH1 0x40 MLOAD PUSH2 0x1F8 SWAP2 SWAP1 PUSH2 0x2115 JUMP JUMPDEST PUSH1 0x40 MLOAD DUP1 SWAP2 SUB SWAP1 RETURN JUMPDEST PUSH2 0x209 PUSH2 0x5F1 JUMP JUMPDEST PUSH1 0x40 MLOAD PUSH2 0x216 SWAP2 SWAP1 PUSH2 0x21B8 JUMP JUMPDEST PUSH1 0x40 MLOAD DUP1 SWAP2 SUB SWAP1 RETURN JUMPDEST PUSH2 0x239 PUSH1 0x4 DUP1 CALLDATASIZE SUB DUP2 ADD SWAP1 PUSH2 0x234 SWAP2 SWAP1 PUSH2 0x220B JUMP JUMPDEST PUSH2 0x681 JUMP JUMPDEST PUSH1 0x40 MLOAD PUSH2 0x246 SWAP2 SWAP1 PUSH2 0x2275 JUMP JUMPDEST PUSH1 0x40 MLOAD DUP1 SWAP2 SUB SWAP1 RETURN JUMPDEST PUSH2 0x269 PUSH1 0x4 DUP1 CALLDATASIZE SUB DUP2 ADD SWAP1 PUSH2 0x264 SWAP2 SWAP1 PUSH2 0x22B8 JUMP JUMPDEST PUSH2 0x69C JUMP JUMPDEST STOP JUMPDEST PUSH2 0x285 PUSH1 0x4 DUP1 CALLDATASIZE SUB DUP2 ADD SWAP1 PUSH2 0x280 SWAP2 SWAP1 PUSH2 0x22F6 JUMP JUMPDEST PUSH2 0x6B2 JUMP JUMPDEST STOP JUMPDEST PUSH2 0x28F PUSH2 0x7B1 JUMP JUMPDEST PUSH1 0x40 MLOAD PUSH2 0x29C SWAP2 SWAP1 PUSH2 0x2355 JUMP JUMPDEST PUSH1 0x40 MLOAD DUP1 SWAP2 SUB SWAP1 RETURN JUMPDEST PUSH2 0x2AD PUSH2 0x7B7 JUMP JUMPDEST PUSH1 0x40 MLOAD PUSH2 0x2BA SWAP2 SWAP1 PUSH2 0x2355 JUMP JUMPDEST PUSH1 0x40 MLOAD DUP1 SWAP2 SUB SWAP1 RETURN JUMPDEST PUSH2 0x2DD PUSH1 0x4 DUP1 CALLDATASIZE SUB DUP2 ADD SWAP1 PUSH2 0x2D8 SWAP2 SWAP1 PUSH2 0x22B8 JUMP JUMPDEST PUSH2 0x7BC JUMP JUMPDEST STOP JUMPDEST PUSH2 0x2F9 PUSH1 0x4 DUP1 CALLDATASIZE SUB DUP2 ADD SWAP1 PUSH2 0x2F4 SWAP2 SWAP1 PUSH2 0x22F6 JUMP JUMPDEST PUSH2 0x864 JUMP JUMPDEST STOP JUMPDEST PUSH2 0x315 PUSH1 0x4 DUP1 CALLDATASIZE SUB DUP2 ADD SWAP1 PUSH2 0x310 SWAP2 SWAP1 PUSH2 0x220B JUMP JUMPDEST PUSH2 0x883 JUMP JUMPDEST PUSH1 0x40 MLOAD PUSH2 0x322 SWAP2 SWAP1 PUSH2 0x2275 JUMP JUMPDEST PUSH1 0x40 MLOAD DUP1 SWAP2 SUB SWAP1 RETURN JUMPDEST PUSH2 0x333 PUSH2 0x894 JUMP JUMPDEST PUSH1 0x40 MLOAD PUSH2 0x340 SWAP2 SWAP1 PUSH2 0x2355 JUMP JUMPDEST PUSH1 0x40 MLOAD DUP1 SWAP2 SUB SWAP1 RETURN JUMPDEST PUSH2 0x363 PUSH1 0x4 DUP1 CALLDATASIZE SUB DUP2 ADD SWAP1 PUSH2 0x35E SWAP2 SWAP1 PUSH2 0x236E JUMP JUMPDEST PUSH2 0x89A JUMP JUMPDEST PUSH1 0x40 MLOAD PUSH2 0x370 SWAP2 SWAP1 PUSH2 0x2355 JUMP JUMPDEST PUSH1 0x40 MLOAD DUP1 SWAP2 SUB SWAP1 RETURN JUMPDEST PUSH2 0x381 PUSH2 0x950 JUMP JUMPDEST STOP JUMPDEST PUSH2 0x38B PUSH2 0x963 JUMP JUMPDEST PUSH1 0x40 MLOAD PUSH2 0x398 SWAP2 SWAP1 PUSH2 0x2275 JUMP JUMPDEST PUSH1 0x40 MLOAD DUP1 SWAP2 SUB SWAP1 RETURN JUMPDEST PUSH2 0x3A9 PUSH2 0x98A JUMP JUMPDEST PUSH1 0x40 MLOAD PUSH2 0x3B6 SWAP2 SWAP1 PUSH2 0x21B8 JUMP JUMPDEST PUSH1 0x40 MLOAD DUP1 SWAP2 SUB SWAP1 RETURN JUMPDEST PUSH2 0x3D9 PUSH1 0x4 DUP1 CALLDATASIZE SUB DUP2 ADD SWAP1 PUSH2 0x3D4 SWAP2 SWAP1 PUSH2 0x23C3 JUMP JUMPDEST PUSH2 0xA1A JUMP JUMPDEST STOP JUMPDEST PUSH2 0x3E3 PUSH2 0xA30 JUMP JUMPDEST PUSH1 0x40 MLOAD PUSH2 0x3F0 SWAP2 SWAP1 PUSH2 0x2355 JUMP JUMPDEST PUSH1 0x40 MLOAD DUP1 SWAP2 SUB SWAP1 RETURN JUMPDEST PUSH2 0x413 PUSH1 0x4 DUP1 CALLDATASIZE SUB DUP2 ADD SWAP1 PUSH2 0x40E SWAP2 SWAP1 PUSH2 0x220B JUMP JUMPDEST PUSH2 0xA4D JUMP JUMPDEST PUSH1 0x40 MLOAD PUSH2 0x420 SWAP2 SWAP1 PUSH2 0x2355 JUMP JUMPDEST PUSH1 0x40 MLOAD DUP1 SWAP2 SUB SWAP1 RETURN JUMPDEST PUSH2 0x431 PUSH2 0xA62 JUMP JUMPDEST PUSH1 0x40 MLOAD PUSH2 0x43E SWAP2 SWAP1 PUSH2 0x2355 JUMP JUMPDEST PUSH1 0x40 MLOAD DUP1 SWAP2 SUB SWAP1 RETURN JUMPDEST PUSH2 0x461 PUSH1 0x4 DUP1 CALLDATASIZE SUB DUP2 ADD SWAP1 PUSH2 0x45C SWAP2 SWAP1 PUSH2 0x252D JUMP JUMPDEST PUSH2 0xA67 JUMP JUMPDEST STOP JUMPDEST PUSH2 0x46B PUSH2 0xA84 JUMP JUMPDEST PUSH1 0x40 MLOAD PUSH2 0x478 SWAP2 SWAP1 PUSH2 0x2355 JUMP JUMPDEST PUSH1 0x40 MLOAD DUP1 SWAP2 SUB SWAP1 RETURN JUMPDEST PUSH2 0x49B PUSH1 0x4 DUP1 CALLDATASIZE SUB DUP2 ADD SWAP1 PUSH2 0x496 SWAP2 SWAP1 PUSH2 0x220B JUMP JUMPDEST PUSH2 0xA89 JUMP JUMPDEST PUSH1 0x40 MLOAD PUSH2 0x4A8 SWAP2 SWAP1 PUSH2 0x21B8 JUMP JUMPDEST PUSH1 0x40 MLOAD DUP1 SWAP2 SUB SWAP1 RETURN JUMPDEST PUSH2 0x4B9 PUSH2 0xB94 JUMP JUMPDEST PUSH1 0x40 MLOAD PUSH2 0x4C6 SWAP2 SWAP1 PUSH2 0x2355 JUMP JUMPDEST PUSH1 0x40 MLOAD DUP1 SWAP2 SUB SWAP1 RETURN JUMPDEST PUSH2 0x4D7 PUSH2 0xBA5 JUMP JUMPDEST PUSH1 0x40 MLOAD PUSH2 0x4E4 SWAP2 SWAP1 PUSH2 0x2355 JUMP JUMPDEST PUSH1 0x40 MLOAD DUP1 SWAP2 SUB SWAP1 RETURN JUMPDEST PUSH2 0x507 PUSH1 0x4 DUP1 CALLDATASIZE SUB DUP2 ADD SWAP1 PUSH2 0x502 SWAP2 SWAP1 PUSH2 0x25AD JUMP JUMPDEST PUSH2 0xBAA JUMP JUMPDEST PUSH1 0x40 MLOAD PUSH2 0x514 SWAP2 SWAP1 PUSH2 0x2115 JUMP JUMPDEST PUSH1 0x40 MLOAD DUP1 SWAP2 SUB SWAP1 RETURN JUMPDEST PUSH2 0x525 PUSH2 0xC38 JUMP JUMPDEST PUSH1 0x40 MLOAD PUSH2 0x532 SWAP2 SWAP1 PUSH2 0x2355 JUMP JUMPDEST PUSH1 0x40 MLOAD DUP1 SWAP2 SUB SWAP1 RETURN JUMPDEST PUSH2 0x555 PUSH1 0x4 DUP1 CALLDATASIZE SUB DUP2 ADD SWAP1 PUSH2 0x550 SWAP2 SWAP1 PUSH2 0x236E JUMP JUMPDEST PUSH2 0xC3E JUMP JUMPDEST STOP JUMPDEST PUSH2 0x571 PUSH1 0x4 DUP1 CALLDATASIZE SUB DUP2 ADD SWAP1 PUSH2 0x56C SWAP2 SWAP1 PUSH2 0x2648 JUMP JUMPDEST PUSH2 0xCC2 JUMP JUMPDEST STOP JUMPDEST PUSH2 0x57B PUSH2 0xDDD JUMP JUMPDEST PUSH1 0x40 MLOAD PUSH2 0x588 SWAP2 SWAP1 PUSH2 0x2355 JUMP JUMPDEST PUSH1 0x40 MLOAD DUP1 SWAP2 SUB SWAP1 RETURN JUMPDEST PUSH0 PUSH4 0x49064906 PUSH1 0xE0 SHL PUSH28 0xFFFFFFFFFFFFFFFFFFFFFFFFFFFFFFFFFFFFFFFFFFFFFFFFFFFFFFFF NOT AND DUP3 PUSH28 0xFFFFFFFFFFFFFFFFFFFFFFFFFFFFFFFFFFFFFFFFFFFFFFFFFFFFFFFF NOT AND EQ DUP1 PUSH2 0x5EA JUMPI POP PUSH2 0x5E9 DUP3 PUSH2 0xDE2 JUMP JUMPDEST JUMPDEST SWAP1 POP SWAP2 SWAP1 POP JUMP JUMPDEST PUSH1 0x60 PUSH1 0x1 DUP1 SLOAD PUSH2 0x600 SWAP1 PUSH2 0x26E6 JUMP JUMPDEST DUP1 PUSH1 0x1F ADD PUSH1 0x20 DUP1 SWAP2 DIV MUL PUSH1 0x20 ADD PUSH1 0x40 MLOAD SWAP1 DUP2 ADD PUSH1 0x40 MSTORE DUP1 SWAP3 SWAP2 SWAP1 DUP2 DUP2 MSTORE PUSH1 0x20 ADD DUP3 DUP1 SLOAD PUSH2 0x62C SWAP1 PUSH2 0x26E6 JUMP JUMPDEST DUP1 ISZERO PUSH2 0x677 JUMPI DUP1 PUSH1 0x1F LT PUSH2 0x64E JUMPI PUSH2 0x100 DUP1 DUP4 SLOAD DIV MUL DUP4 MSTORE SWAP2 PUSH1 0x20 ADD SWAP2 PUSH2 0x677 JUMP JUMPDEST DUP3 ADD SWAP2 SWAP1 PUSH0 MSTORE PUSH1 0x20 PUSH0 KECCAK256 SWAP1 JUMPDEST DUP2 SLOAD DUP2 MSTORE SWAP1 PUSH1 0x1 ADD SWAP1 PUSH1 0x20 ADD DUP1 DUP4 GT PUSH2 0x65A JUMPI DUP3 SWAP1 SUB PUSH1 0x1F AND DUP3 ADD SWAP2 JUMPDEST POP POP POP POP POP SWAP1 POP SWAP1 JUMP JUMPDEST PUSH0 PUSH2 0x68B DUP3 PUSH2 0xEC3 JUMP JUMPDEST POP PUSH2 0x695 DUP3 PUSH2 0xF49 JUMP JUMPDEST SWAP1 POP SWAP2 SWAP1 POP JUMP JUMPDEST PUSH2 0x6AE DUP3 DUP3 PUSH2 0x6A9 PUSH2 0xF82 JUMP JUMPDEST PUSH2 0xF89 JUMP JUMPDEST POP POP JUMP JUMPDEST PUSH0 PUSH20 0xFFFFFFFFFFFFFFFFFFFFFFFFFFFFFFFFFFFFFFFF AND DUP3 PUSH20 0xFFFFFFFFFFFFFFFFFFFFFFFFFFFFFFFFFFFFFFFF AND SUB PUSH2 0x722 JUMPI PUSH0 PUSH1 0x40 MLOAD PUSH32 0x64A0AE9200000000000000000000000000000000000000000000000000000000 DUP2 MSTORE PUSH1 0x4 ADD PUSH2 0x719 SWAP2 SWAP1 PUSH2 0x2275 JUMP JUMPDEST PUSH1 0x40 MLOAD DUP1 SWAP2 SUB SWAP1 REVERT JUMPDEST PUSH0 PUSH2 0x735 DUP4 DUP4 PUSH2 0x730 PUSH2 0xF82 JUMP JUMPDEST PUSH2 0xF9B JUMP JUMPDEST SWAP1 POP DUP4 PUSH20 0xFFFFFFFFFFFFFFFFFFFFFFFFFFFFFFFFFFFFFFFF AND DUP2 PUSH20 0xFFFFFFFFFFFFFFFFFFFFFFFFFFFFFFFFFFFFFFFF AND EQ PUSH2 0x7AB JUMPI DUP4 DUP3 DUP3 PUSH1 0x40 MLOAD PUSH32 0x64283D7B00000000000000000000000000000000000000000000000000000000 DUP2 MSTORE PUSH1 0x4 ADD PUSH2 0x7A2 SWAP4 SWAP3 SWAP2 SWAP1 PUSH2 0x2716 JUMP JUMPDEST PUSH1 0x40 MLOAD DUP1 SWAP2 SUB SWAP1 REVERT JUMPDEST POP POP POP POP JUMP JUMPDEST PUSH1 0xA SLOAD DUP2 JUMP JUMPDEST PUSH1 0x64 DUP2 JUMP JUMPDEST PUSH2 0x7C4 PUSH2 0x11A6 JUMP JUMPDEST PUSH0 JUMPDEST DUP2 DUP2 LT ISZERO PUSH2 0x85F JUMPI PUSH0 PUSH2 0x7D9 PUSH1 0x8 PUSH2 0x122D JUMP JUMPDEST SWAP1 POP PUSH1 0x64 DUP2 LT PUSH2 0x81E JUMPI PUSH1 0x40 MLOAD PUSH32 0x8C379A000000000000000000000000000000000000000000000000000000000 DUP2 MSTORE PUSH1 0x4 ADD PUSH2 0x815 SWAP1 PUSH2 0x2795 JUMP JUMPDEST PUSH1 0x40 MLOAD DUP1 SWAP2 SUB SWAP1 REVERT JUMPDEST PUSH0 PUSH2 0x827 PUSH2 0x1239 JUMP JUMPDEST SWAP1 POP PUSH2 0x833 DUP6 DUP4 PUSH2 0x1318 JUMP JUMPDEST PUSH2 0x83D DUP3 DUP3 PUSH2 0x1335 JUMP JUMPDEST PUSH2 0x847 PUSH1 0x8 PUSH2 0x134F JUMP JUMPDEST PUSH2 0x850 DUP2 PUSH2 0x1363 JUMP JUMPDEST POP POP DUP1 DUP1 PUSH1 0x1 ADD SWAP2 POP POP PUSH2 0x7C6 JUMP JUMPDEST POP POP POP JUMP JUMPDEST PUSH2 0x87E DUP4 DUP4 DUP4 PUSH1 0x40 MLOAD DUP1 PUSH1 0x20 ADD PUSH1 0x40 MSTORE DUP1 PUSH0 DUP2 MSTORE POP PUSH2 0xA67 JUMP JUMPDEST POP POP POP JUMP JUMPDEST PUSH0 PUSH2 0x88D DUP3 PUSH2 0xEC3 JUMP JUMPDEST SWAP1 POP SWAP2 SWAP1 POP JUMP JUMPDEST PUSH1 0x9 SLOAD DUP2 JUMP JUMPDEST PUSH0 DUP1 PUSH20 0xFFFFFFFFFFFFFFFFFFFFFFFFFFFFFFFFFFFFFFFF AND DUP3 PUSH20 0xFFFFFFFFFFFFFFFFFFFFFFFFFFFFFFFFFFFFFFFF AND SUB PUSH2 0x90B JUMPI PUSH0 PUSH1 0x40 MLOAD PUSH32 0x89C62B6400000000000000000000000000000000000000000000000000000000 DUP2 MSTORE PUSH1 0x4 ADD PUSH2 0x902 SWAP2 SWAP1 PUSH2 0x2275 JUMP JUMPDEST PUSH1 0x40 MLOAD DUP1 SWAP2 SUB SWAP1 REVERT JUMPDEST PUSH1 0x4 PUSH0 DUP4 PUSH20 0xFFFFFFFFFFFFFFFFFFFFFFFFFFFFFFFFFFFFFFFF AND PUSH20 0xFFFFFFFFFFFFFFFFFFFFFFFFFFFFFFFFFFFFFFFF AND DUP2 MSTORE PUSH1 0x20 ADD SWAP1 DUP2 MSTORE PUSH1 0x20 ADD PUSH0 KECCAK256 SLOAD SWAP1 POP SWAP2 SWAP1 POP JUMP JUMPDEST PUSH2 0x958 PUSH2 0x11A6 JUMP JUMPDEST PUSH2 0x961 PUSH0 PUSH2 0x13CF JUMP JUMPDEST JUMP JUMPDEST PUSH0 DUP1 PUSH0 SWAP1 SLOAD SWAP1 PUSH2 0x100 EXP SWAP1 DIV PUSH20 0xFFFFFFFFFFFFFFFFFFFFFFFFFFFFFFFFFFFFFFFF AND SWAP1 POP SWAP1 JUMP JUMPDEST PUSH1 0x60 PUSH1 0x2 DUP1 SLOAD PUSH2 0x999 SWAP1 PUSH2 0x26E6 JUMP JUMPDEST DUP1 PUSH1 0x1F ADD PUSH1 0x20 DUP1 SWAP2 DIV MUL PUSH1 0x20 ADD PUSH1 0x40 MLOAD SWAP1 DUP2 ADD PUSH1 0x40 MSTORE DUP1 SWAP3 SWAP2 SWAP1 DUP2 DUP2 MSTORE PUSH1 0x20 ADD DUP3 DUP1 SLOAD PUSH2 0x9C5 SWAP1 PUSH2 0x26E6 JUMP JUMPDEST DUP1 ISZERO PUSH2 0xA10 JUMPI DUP1 PUSH1 0x1F LT PUSH2 0x9E7 JUMPI PUSH2 0x100 DUP1 DUP4 SLOAD DIV MUL DUP4 MSTORE SWAP2 PUSH1 0x20 ADD SWAP2 PUSH2 0xA10 JUMP JUMPDEST DUP3 ADD SWAP2 SWAP1 PUSH0 MSTORE PUSH1 0x20 PUSH0 KECCAK256 SWAP1 JUMPDEST DUP2 SLOAD DUP2 MSTORE SWAP1 PUSH1 0x1 ADD SWAP1 PUSH1 0x20 ADD DUP1 DUP4 GT PUSH2 0x9F3 JUMPI DUP3 SWAP1 SUB PUSH1 0x1F AND DUP3 ADD SWAP2 JUMPDEST POP POP POP POP POP SWAP1 POP SWAP1 JUMP JUMPDEST PUSH2 0xA2C PUSH2 0xA25 PUSH2 0xF82 JUMP JUMPDEST DUP4 DUP4 PUSH2 0x1490 JUMP JUMPDEST POP POP JUMP JUMPDEST PUSH1 0x1 PUSH1 0x9 PUSH1 0x5A PUSH2 0xA40 SWAP2 SWAP1 PUSH2 0x27E0 JUMP JUMPDEST PUSH2 0xA4A SWAP2 SWAP1 PUSH2 0x27E0 JUMP JUMPDEST DUP2 JUMP JUMPDEST PUSH1 0xC PUSH1 0x20 MSTORE DUP1 PUSH0 MSTORE PUSH1 0x40 PUSH0 KECCAK256 PUSH0 SWAP2 POP SWAP1 POP SLOAD DUP2 JUMP JUMPDEST PUSH1 0x9 DUP2 JUMP JUMPDEST PUSH2 0xA72 DUP5 DUP5 DUP5 PUSH2 0x6B2 JUMP JUMPDEST PUSH2 0xA7E DUP5 DUP5 DUP5 DUP5 PUSH2 0x15F9 JUMP JUMPDEST POP POP POP POP JUMP JUMPDEST PUSH1 0x5A DUP2 JUMP JUMPDEST PUSH1 0x60 PUSH2 0xA94 DUP3 PUSH2 0xEC3 JUMP JUMPDEST POP PUSH0 PUSH1 0x7 PUSH0 DUP5 DUP2 MSTORE PUSH1 0x20 ADD SWAP1 DUP2 MSTORE PUSH1 0x20 ADD PUSH0 KECCAK256 DUP1 SLOAD PUSH2 0xAB2 SWAP1 PUSH2 0x26E6 JUMP JUMPDEST DUP1 PUSH1 0x1F ADD PUSH1 0x20 DUP1 SWAP2 DIV MUL PUSH1 0x20 ADD PUSH1 0x40 MLOAD SWAP1 DUP2 ADD PUSH1 0x40 MSTORE DUP1 SWAP3 SWAP2 SWAP1 DUP2 DUP2 MSTORE PUSH1 0x20 ADD DUP3 DUP1 SLOAD PUSH2 0xADE SWAP1 PUSH2 0x26E6 JUMP JUMPDEST DUP1 ISZERO PUSH2 0xB29 JUMPI DUP1 PUSH1 0x1F LT PUSH2 0xB00 JUMPI PUSH2 0x100 DUP1 DUP4 SLOAD DIV MUL DUP4 MSTORE SWAP2 PUSH1 0x20 ADD SWAP2 PUSH2 0xB29 JUMP JUMPDEST DUP3 ADD SWAP2 SWAP1 PUSH0 MSTORE PUSH1 0x20 PUSH0 KECCAK256 SWAP1 JUMPDEST DUP2 SLOAD DUP2 MSTORE SWAP1 PUSH1 0x1 ADD SWAP1 PUSH1 0x20 ADD DUP1 DUP4 GT PUSH2 0xB0C JUMPI DUP3 SWAP1 SUB PUSH1 0x1F AND DUP3 ADD SWAP2 JUMPDEST POP POP POP POP POP SWAP1 POP PUSH0 PUSH2 0xB39 PUSH2 0x17AB JUMP JUMPDEST SWAP1 POP PUSH0 DUP2 MLOAD SUB PUSH2 0xB4D JUMPI DUP2 SWAP3 POP POP POP PUSH2 0xB8F JUMP JUMPDEST PUSH0 DUP3 MLOAD GT ISZERO PUSH2 0xB81 JUMPI DUP1 DUP3 PUSH1 0x40 MLOAD PUSH1 0x20 ADD PUSH2 0xB69 SWAP3 SWAP2 SWAP1 PUSH2 0x284D JUMP JUMPDEST PUSH1 0x40 MLOAD PUSH1 0x20 DUP2 DUP4 SUB SUB DUP2 MSTORE SWAP1 PUSH1 0x40 MSTORE SWAP3 POP POP POP PUSH2 0xB8F JUMP JUMPDEST PUSH2 0xB8A DUP5 PUSH2 0x17C1 JUMP JUMPDEST SWAP3 POP POP POP JUMPDEST SWAP2 SWAP1 POP JUMP JUMPDEST PUSH1 0x9 PUSH1 0x5A PUSH2 0xBA2 SWAP2 SWAP1 PUSH2 0x27E0 JUMP JUMPDEST DUP2 JUMP JUMPDEST PUSH1 0x5A DUP2 JUMP JUMPDEST PUSH0 PUSH1 0x6 PUSH0 DUP5 PUSH20 0xFFFFFFFFFFFFFFFFFFFFFFFFFFFFFFFFFFFFFFFF AND PUSH20 0xFFFFFFFFFFFFFFFFFFFFFFFFFFFFFFFFFFFFFFFF AND DUP2 MSTORE PUSH1 0x20 ADD SWAP1 DUP2 MSTORE PUSH1 0x20 ADD PUSH0 KECCAK256 PUSH0 DUP4 PUSH20 0xFFFFFFFFFFFFFFFFFFFFFFFFFFFFFFFFFFFFFFFF AND PUSH20 0xFFFFFFFFFFFFFFFFFFFFFFFFFFFFFFFFFFFFFFFF AND DUP2 MSTORE PUSH1 0x20 ADD SWAP1 DUP2 MSTORE PUSH1 0x20 ADD PUSH0 KECCAK256 PUSH0 SWAP1 SLOAD SWAP1 PUSH2 0x100 EXP SWAP1 DIV PUSH1 0xFF AND SWAP1 POP SWAP3 SWAP2 POP POP JUMP JUMPDEST PUSH1 0xB SLOAD DUP2 JUMP JUMPDEST PUSH2 0xC46 PUSH2 0x11A6 JUMP JUMPDEST PUSH0 PUSH20 0xFFFFFFFFFFFFFFFFFFFFFFFFFFFFFFFFFFFFFFFF AND DUP2 PUSH20 0xFFFFFFFFFFFFFFFFFFFFFFFFFFFFFFFFFFFFFFFF AND SUB PUSH2 0xCB6 JUMPI PUSH0 PUSH1 0x40 MLOAD PUSH32 0x1E4FBDF700000000000000000000000000000000000000000000000000000000 DUP2 MSTORE PUSH1 0x4 ADD PUSH2 0xCAD SWAP2 SWAP1 PUSH2 0x2275 JUMP JUMPDEST PUSH1 0x40 MLOAD DUP1 SWAP2 SUB SWAP1 REVERT JUMPDEST PUSH2 0xCBF DUP2 PUSH2 0x13CF JUMP JUMPDEST POP JUMP JUMPDEST PUSH2 0xCCA PUSH2 0x11A6 JUMP JUMPDEST PUSH0 PUSH2 0xCD5 PUSH1 0x8 PUSH2 0x122D JUMP JUMPDEST SWAP1 POP PUSH1 0x64 DUP2 LT PUSH2 0xD1A JUMPI PUSH1 0x40 MLOAD PUSH32 0x8C379A000000000000000000000000000000000000000000000000000000000 DUP2 MSTORE PUSH1 0x4 ADD PUSH2 0xD11 SWAP1 PUSH2 0x2795 JUMP JUMPDEST PUSH1 0x40 MLOAD DUP1 SWAP2 SUB SWAP1 REVERT JUMPDEST PUSH2 0xD23 DUP5 PUSH2 0x1827 JUMP JUMPDEST PUSH2 0xD62 JUMPI PUSH1 0x40 MLOAD PUSH32 0x8C379A000000000000000000000000000000000000000000000000000000000 DUP2 MSTORE PUSH1 0x4 ADD PUSH2 0xD59 SWAP1 PUSH2 0x28E0 JUMP JUMPDEST PUSH1 0x40 MLOAD DUP1 SWAP2 SUB SWAP1 REVERT JUMPDEST PUSH2 0xD6C DUP6 DUP3 PUSH2 0x1318 JUMP JUMPDEST PUSH2 0xDB9 DUP2 DUP5 DUP5 DUP1 DUP1 PUSH1 0x1F ADD PUSH1 0x20 DUP1 SWAP2 DIV MUL PUSH1 0x20 ADD PUSH1 0x40 MLOAD SWAP1 DUP2 ADD PUSH1 0x40 MSTORE DUP1 SWAP4 SWAP3 SWAP2 SWAP1 DUP2 DUP2 MSTORE PUSH1 0x20 ADD DUP4 DUP4 DUP1 DUP3 DUP5 CALLDATACOPY PUSH0 DUP2 DUP5 ADD MSTORE PUSH1 0x1F NOT PUSH1 0x1F DUP3 ADD AND SWAP1 POP DUP1 DUP4 ADD SWAP3 POP POP POP POP POP POP POP PUSH2 0x18CA JUMP JUMPDEST PUSH2 0xDC3 DUP2 DUP6 PUSH2 0x1335 JUMP JUMPDEST PUSH2 0xDCD PUSH1 0x8 PUSH2 0x134F JUMP JUMPDEST PUSH2 0xDD6 DUP5 PUSH2 0x1363 JUMP JUMPDEST POP POP POP POP POP JUMP JUMPDEST PUSH1 0x1 DUP2 JUMP JUMPDEST PUSH0 PUSH32 0x80AC58CD00000000000000000000000000000000000000000000000000000000 PUSH28 0xFFFFFFFFFFFFFFFFFFFFFFFFFFFFFFFFFFFFFFFFFFFFFFFFFFFFFFFF NOT AND DUP3 PUSH28 0xFFFFFFFFFFFFFFFFFFFFFFFFFFFFFFFFFFFFFFFFFFFFFFFFFFFFFFFF NOT AND EQ DUP1 PUSH2 0xEAC JUMPI POP PUSH32 0x5B5E139F00000000000000000000000000000000000000000000000000000000 PUSH28 0xFFFFFFFFFFFFFFFFFFFFFFFFFFFFFFFFFFFFFFFFFFFFFFFFFFFFFFFF NOT AND DUP3 PUSH28 0xFFFFFFFFFFFFFFFFFFFFFFFFFFFFFFFFFFFFFFFFFFFFFFFFFFFFFFFF NOT AND EQ JUMPDEST DUP1 PUSH2 0xEBC JUMPI POP PUSH2 0xEBB DUP3 PUSH2 0x1924 JUMP JUMPDEST JUMPDEST SWAP1 POP SWAP2 SWAP1 POP JUMP JUMPDEST PUSH0 DUP1 PUSH2 0xECE DUP4 PUSH2 0x198D JUMP JUMPDEST SWAP1 POP PUSH0 PUSH20 0xFFFFFFFFFFFFFFFFFFFFFFFFFFFFFFFFFFFFFFFF AND DUP2 PUSH20 0xFFFFFFFFFFFFFFFFFFFFFFFFFFFFFFFFFFFFFFFF AND SUB PUSH2 0xF40 JUMPI DUP3 PUSH1 0x40 MLOAD PUSH32 0x7E27328900000000000000000000000000000000000000000000000000000000 DUP2 MSTORE PUSH1 0x4 ADD PUSH2 0xF37 SWAP2 SWAP1 PUSH2 0x2355 JUMP JUMPDEST PUSH1 0x40 MLOAD DUP1 SWAP2 SUB SWAP1 REVERT JUMPDEST DUP1 SWAP2 POP POP SWAP2 SWAP1 POP JUMP JUMPDEST PUSH0 PUSH1 0x5 PUSH0 DUP4 DUP2 MSTORE PUSH1 0x20 ADD SWAP1 DUP2 MSTORE PUSH1 0x20 ADD PUSH0 KECCAK256 PUSH0 SWAP1 SLOAD SWAP1 PUSH2 0x100 EXP SWAP1 DIV PUSH20 0xFFFFFFFFFFFFFFFFFFFFFFFFFFFFFFFFFFFFFFFF AND SWAP1 POP SWAP2 SWAP1 POP JUMP JUMPDEST PUSH0 CALLER SWAP1 POP SWAP1 JUMP JUMPDEST PUSH2 0xF96 DUP4 DUP4 DUP4 PUSH1 0x1 PUSH2 0x19C6 JUMP JUMPDEST POP POP POP JUMP JUMPDEST PUSH0 DUP1 PUSH2 0xFA6 DUP5 PUSH2 0x198D JUMP JUMPDEST SWAP1 POP PUSH0 PUSH20 0xFFFFFFFFFFFFFFFFFFFFFFFFFFFFFFFFFFFFFFFF AND DUP4 PUSH20 0xFFFFFFFFFFFFFFFFFFFFFFFFFFFFFFFFFFFFFFFF AND EQ PUSH2 0xFE7 JUMPI PUSH2 0xFE6 DUP2 DUP5 DUP7 PUSH2 0x1B85 JUMP JUMPDEST JUMPDEST PUSH0 PUSH20 0xFFFFFFFFFFFFFFFFFFFFFFFFFFFFFFFFFFFFFFFF AND DUP2 PUSH20 0xFFFFFFFFFFFFFFFFFFFFFFFFFFFFFFFFFFFFFFFF AND EQ PUSH2 0x1072 JUMPI PUSH2 0x1026 PUSH0 DUP6 PUSH0 DUP1 PUSH2 0x19C6 JUMP JUMPDEST PUSH1 0x1 PUSH1 0x4 PUSH0 DUP4 PUSH20 0xFFFFFFFFFFFFFFFFFFFFFFFFFFFFFFFFFFFFFFFF AND PUSH20 0xFFFFFFFFFFFFFFFFFFFFFFFFFFFFFFFFFFFFFFFF AND DUP2 MSTORE PUSH1 0x20 ADD SWAP1 DUP2 MSTORE PUSH1 0x20 ADD PUSH0 KECCAK256 PUSH0 DUP3 DUP3 SLOAD SUB SWAP3 POP POP DUP2 SWAP1 SSTORE POP JUMPDEST PUSH0 PUSH20 0xFFFFFFFFFFFFFFFFFFFFFFFFFFFFFFFFFFFFFFFF AND DUP6 PUSH20 0xFFFFFFFFFFFFFFFFFFFFFFFFFFFFFFFFFFFFFFFF AND EQ PUSH2 0x10F1 JUMPI PUSH1 0x1 PUSH1 0x4 PUSH0 DUP8 PUSH20 0xFFFFFFFFFFFFFFFFFFFFFFFFFFFFFFFFFFFFFFFF AND PUSH20 0xFFFFFFFFFFFFFFFFFFFFFFFFFFFFFFFFFFFFFFFF AND DUP2 MSTORE PUSH1 0x20 ADD SWAP1 DUP2 MSTORE PUSH1 0x20 ADD PUSH0 KECCAK256 PUSH0 DUP3 DUP3 SLOAD ADD SWAP3 POP POP DUP2 SWAP1 SSTORE POP JUMPDEST DUP5 PUSH1 0x3 PUSH0 DUP7 DUP2 MSTORE PUSH1 0x20 ADD SWAP1 DUP2 MSTORE PUSH1 0x20 ADD PUSH0 KECCAK256 PUSH0 PUSH2 0x100 EXP DUP2 SLOAD DUP2 PUSH20 0xFFFFFFFFFFFFFFFFFFFFFFFFFFFFFFFFFFFFFFFF MUL NOT AND SWAP1 DUP4 PUSH20 0xFFFFFFFFFFFFFFFFFFFFFFFFFFFFFFFFFFFFFFFF AND MUL OR SWAP1 SSTORE POP DUP4 DUP6 PUSH20 0xFFFFFFFFFFFFFFFFFFFFFFFFFFFFFFFFFFFFFFFF AND DUP3 PUSH20 0xFFFFFFFFFFFFFFFFFFFFFFFFFFFFFFFFFFFFFFFF AND PUSH32 0xDDF252AD1BE2C89B69C2B068FC378DAA952BA7F163C4A11628F55A4DF523B3EF PUSH1 0x40 MLOAD PUSH1 0x40 MLOAD DUP1 SWAP2 SUB SWAP1 LOG4 DUP1 SWAP2 POP POP SWAP4 SWAP3 POP POP POP JUMP JUMPDEST PUSH2 0x11AE PUSH2 0xF82 JUMP JUMPDEST PUSH20 0xFFFFFFFFFFFFFFFFFFFFFFFFFFFFFFFFFFFFFFFF AND PUSH2 0x11CC PUSH2 0x963 JUMP JUMPDEST PUSH20 0xFFFFFFFFFFFFFFFFFFFFFFFFFFFFFFFFFFFFFFFF AND EQ PUSH2 0x122B JUMPI PUSH2 0x11EF PUSH2 0xF82 JUMP JUMPDEST PUSH1 0x40 MLOAD PUSH32 0x118CDAA700000000000000000000000000000000000000000000000000000000 DUP2 MSTORE PUSH1 0x4 ADD PUSH2 0x1222 SWAP2 SWAP1 PUSH2 0x2275 JUMP JUMPDEST PUSH1 0x40 MLOAD DUP1 SWAP2 SUB SWAP1 REVERT JUMPDEST JUMP JUMPDEST PUSH0 DUP2 PUSH0 ADD SLOAD SWAP1 POP SWAP2 SWAP1 POP JUMP JUMPDEST PUSH0 DUP1 PUSH1 0x1 NUMBER PUSH2 0x1248 SWAP2 SWAP1 PUSH2 0x28FE JUMP JUMPDEST BLOCKHASH PUSH1 0x40 MLOAD PUSH1 0x20 ADD PUSH2 0x1259 SWAP2 SWAP1 PUSH2 0x295A JUMP JUMPDEST PUSH1 0x40 MLOAD PUSH1 0x20 DUP2 DUP4 SUB SUB DUP2 MSTORE SWAP1 PUSH1 0x40 MSTORE DUP1 MLOAD SWAP1 PUSH1 0x20 ADD KECCAK256 PUSH0 SHR SWAP1 POP PUSH0 PUSH2 0x127D DUP3 PUSH2 0x1C48 JUMP JUMPDEST SWAP1 POP PUSH0 PUSH1 0x64 PUSH1 0x5A PUSH2 0x128E SWAP2 SWAP1 PUSH2 0x2974 JUMP JUMPDEST DUP2 PUSH2 0x1299 SWAP2 SWAP1 PUSH2 0x27E0 JUMP JUMPDEST SWAP1 POP PUSH1 0x64 PUSH1 0x9 PUSH2 0x12A9 SWAP2 SWAP1 PUSH2 0x2974 JUMP JUMPDEST DUP2 PUSH2 0x12B4 SWAP2 SWAP1 PUSH2 0x27E0 JUMP JUMPDEST SWAP1 POP PUSH1 0x64 PUSH1 0x9 PUSH2 0x12C4 SWAP2 SWAP1 PUSH2 0x2974 JUMP JUMPDEST DUP2 PUSH2 0x12CF SWAP2 SWAP1 PUSH2 0x27E0 JUMP JUMPDEST DUP3 LT ISZERO PUSH2 0x12E1 JUMPI PUSH0 SWAP4 POP POP POP POP PUSH2 0x1315 JUMP JUMPDEST PUSH1 0x64 PUSH1 0x1 PUSH2 0x12EF SWAP2 SWAP1 PUSH2 0x2974 JUMP JUMPDEST DUP2 PUSH2 0x12FA SWAP2 SWAP1 PUSH2 0x27E0 JUMP JUMPDEST DUP3 LT ISZERO PUSH2 0x130D JUMPI PUSH1 0x1 SWAP4 POP POP POP POP PUSH2 0x1315 JUMP JUMPDEST PUSH1 0x2 SWAP4 POP POP POP POP JUMPDEST SWAP1 JUMP JUMPDEST PUSH2 0x1331 DUP3 DUP3 PUSH1 0x40 MLOAD DUP1 PUSH1 0x20 ADD PUSH1 0x40 MSTORE DUP1 PUSH0 DUP2 MSTORE POP PUSH2 0x1C81 JUMP JUMPDEST POP POP JUMP JUMPDEST DUP1 PUSH1 0xC PUSH0 DUP5 DUP2 MSTORE PUSH1 0x20 ADD SWAP1 DUP2 MSTORE PUSH1 0x20 ADD PUSH0 KECCAK256 DUP2 SWAP1 SSTORE POP POP POP JUMP JUMPDEST PUSH1 0x1 DUP2 PUSH0 ADD PUSH0 DUP3 DUP3 SLOAD ADD SWAP3 POP POP DUP2 SWAP1 SSTORE POP POP JUMP JUMPDEST PUSH0 DUP2 SUB PUSH2 0x1386 JUMPI PUSH1 0x9 PUSH0 DUP2 SLOAD DUP1 SWAP3 SWAP2 SWAP1 PUSH2 0x137C SWAP1 PUSH2 0x29B5 JUMP JUMPDEST SWAP2 SWAP1 POP SSTORE POP PUSH2 0x13CC JUMP JUMPDEST PUSH1 0x1 DUP2 SUB PUSH2 0x13AA JUMPI PUSH1 0xA PUSH0 DUP2 SLOAD DUP1 SWAP3 SWAP2 SWAP1 PUSH2 0x13A0 SWAP1 PUSH2 0x29B5 JUMP JUMPDEST SWAP2 SWAP1 POP SSTORE POP PUSH2 0x13CB JUMP JUMPDEST PUSH1 0x2 DUP2 SUB PUSH2 0x13CA JUMPI PUSH1 0xB PUSH0 DUP2 SLOAD DUP1 SWAP3 SWAP2 SWAP1 PUSH2 0x13C4 SWAP1 PUSH2 0x29B5 JUMP JUMPDEST SWAP2 SWAP1 POP SSTORE POP JUMPDEST JUMPDEST JUMPDEST POP JUMP JUMPDEST PUSH0 DUP1 PUSH0 SWAP1 SLOAD SWAP1 PUSH2 0x100 EXP SWAP1 DIV PUSH20 0xFFFFFFFFFFFFFFFFFFFFFFFFFFFFFFFFFFFFFFFF AND SWAP1 POP DUP2 PUSH0 DUP1 PUSH2 0x100 EXP DUP2 SLOAD DUP2 PUSH20 0xFFFFFFFFFFFFFFFFFFFFFFFFFFFFFFFFFFFFFFFF MUL NOT AND SWAP1 DUP4 PUSH20 0xFFFFFFFFFFFFFFFFFFFFFFFFFFFFFFFFFFFFFFFF AND MUL OR SWAP1 SSTORE POP DUP2 PUSH20 0xFFFFFFFFFFFFFFFFFFFFFFFFFFFFFFFFFFFFFFFF AND DUP2 PUSH20 0xFFFFFFFFFFFFFFFFFFFFFFFFFFFFFFFFFFFFFFFF AND PUSH32 0x8BE0079C531659141344CD1FD0A4F28419497F9722A3DAAFE3B4186F6B6457E0 PUSH1 0x40 MLOAD PUSH1 0x40 MLOAD DUP1 SWAP2 SUB SWAP1 LOG3 POP POP JUMP JUMPDEST PUSH0 PUSH20 0xFFFFFFFFFFFFFFFFFFFFFFFFFFFFFFFFFFFFFFFF AND DUP3 PUSH20 0xFFFFFFFFFFFFFFFFFFFFFFFFFFFFFFFFFFFFFFFF AND SUB PUSH2 0x1500 JUMPI DUP2 PUSH1 0x40 MLOAD PUSH32 0x5B08BA1800000000000000000000000000000000000000000000000000000000 DUP2 MSTORE PUSH1 0x4 ADD PUSH2 0x14F7 SWAP2 SWAP1 PUSH2 0x2275 JUMP JUMPDEST PUSH1 0x40 MLOAD DUP1 SWAP2 SUB SWAP1 REVERT JUMPDEST DUP1 PUSH1 0x6 PUSH0 DUP6 PUSH20 0xFFFFFFFFFFFFFFFFFFFFFFFFFFFFFFFFFFFFFFFF AND PUSH20 0xFFFFFFFFFFFFFFFFFFFFFFFFFFFFFFFFFFFFFFFF AND DUP2 MSTORE PUSH1 0x20 ADD SWAP1 DUP2 MSTORE PUSH1 0x20 ADD PUSH0 KECCAK256 PUSH0 DUP5 PUSH20 0xFFFFFFFFFFFFFFFFFFFFFFFFFFFFFFFFFFFFFFFF AND PUSH20 0xFFFFFFFFFFFFFFFFFFFFFFFFFFFFFFFFFFFFFFFF AND DUP2 MSTORE PUSH1 0x20 ADD SWAP1 DUP2 MSTORE PUSH1 0x20 ADD PUSH0 KECCAK256 PUSH0 PUSH2 0x100 EXP DUP2 SLOAD DUP2 PUSH1 0xFF MUL NOT AND SWAP1 DUP4 ISZERO ISZERO MUL OR SWAP1 SSTORE POP DUP2 PUSH20 0xFFFFFFFFFFFFFFFFFFFFFFFFFFFFFFFFFFFFFFFF AND DUP4 PUSH20 0xFFFFFFFFFFFFFFFFFFFFFFFFFFFFFFFFFFFFFFFF AND PUSH32 0x17307EAB39AB6107E8899845AD3D59BD9653F200F220920489CA2B5937696C31 DUP4 PUSH1 0x40 MLOAD PUSH2 0x15EC SWAP2 SWAP1 PUSH2 0x2115 JUMP JUMPDEST PUSH1 0x40 MLOAD DUP1 SWAP2 SUB SWAP1 LOG3 POP POP POP JUMP JUMPDEST PUSH0 DUP4 PUSH20 0xFFFFFFFFFFFFFFFFFFFFFFFFFFFFFFFFFFFFFFFF AND EXTCODESIZE GT ISZERO PUSH2 0x17A5 JUMPI DUP3 PUSH20 0xFFFFFFFFFFFFFFFFFFFFFFFFFFFFFFFFFFFFFFFF AND PUSH4 0x150B7A02 PUSH2 0x163C PUSH2 0xF82 JUMP JUMPDEST DUP7 DUP6 DUP6 PUSH1 0x40 MLOAD DUP6 PUSH4 0xFFFFFFFF AND PUSH1 0xE0 SHL DUP2 MSTORE PUSH1 0x4 ADD PUSH2 0x165E SWAP5 SWAP4 SWAP3 SWAP2 SWAP1 PUSH2 0x2A4E JUMP JUMPDEST PUSH1 0x20 PUSH1 0x40 MLOAD DUP1 DUP4 SUB DUP2 PUSH0 DUP8 GAS CALL SWAP3 POP POP POP DUP1 ISZERO PUSH2 0x1699 JUMPI POP PUSH1 0x40 MLOAD RETURNDATASIZE PUSH1 0x1F NOT PUSH1 0x1F DUP3 ADD AND DUP3 ADD DUP1 PUSH1 0x40 MSTORE POP DUP2 ADD SWAP1 PUSH2 0x1696 SWAP2 SWAP1 PUSH2 0x2AAC JUMP JUMPDEST PUSH1 0x1 JUMPDEST PUSH2 0x171A JUMPI RETURNDATASIZE DUP1 PUSH0 DUP2 EQ PUSH2 0x16C7 JUMPI PUSH1 0x40 MLOAD SWAP2 POP PUSH1 0x1F NOT PUSH1 0x3F RETURNDATASIZE ADD AND DUP3 ADD PUSH1 0x40 MSTORE RETURNDATASIZE DUP3 MSTORE RETURNDATASIZE PUSH0 PUSH1 0x20 DUP5 ADD RETURNDATACOPY PUSH2 0x16CC JUMP JUMPDEST PUSH1 0x60 SWAP2 POP JUMPDEST POP PUSH0 DUP2 MLOAD SUB PUSH2 0x1712 JUMPI DUP4 PUSH1 0x40 MLOAD PUSH32 0x64A0AE9200000000000000000000000000000000000000000000000000000000 DUP2 MSTORE PUSH1 0x4 ADD PUSH2 0x1709 SWAP2 SWAP1 PUSH2 0x2275 JUMP JUMPDEST PUSH1 0x40 MLOAD DUP1 SWAP2 SUB SWAP1 REVERT JUMPDEST DUP1 MLOAD DUP2 PUSH1 0x20 ADD REVERT JUMPDEST PUSH4 0x150B7A02 PUSH1 0xE0 SHL PUSH28 0xFFFFFFFFFFFFFFFFFFFFFFFFFFFFFFFFFFFFFFFFFFFFFFFFFFFFFFFF NOT AND DUP2 PUSH28 0xFFFFFFFFFFFFFFFFFFFFFFFFFFFFFFFFFFFFFFFFFFFFFFFFFFFFFFFF NOT AND EQ PUSH2 0x17A3 JUMPI DUP4 PUSH1 0x40 MLOAD PUSH32 0x64A0AE9200000000000000000000000000000000000000000000000000000000 DUP2 MSTORE PUSH1 0x4 ADD PUSH2 0x179A SWAP2 SWAP1 PUSH2 0x2275 JUMP JUMPDEST PUSH1 0x40 MLOAD DUP1 SWAP2 SUB SWAP1 REVERT JUMPDEST POP JUMPDEST POP POP POP POP JUMP JUMPDEST PUSH1 0x60 PUSH1 0x40 MLOAD DUP1 PUSH1 0x20 ADD PUSH1 0x40 MSTORE DUP1 PUSH0 DUP2 MSTORE POP SWAP1 POP SWAP1 JUMP JUMPDEST PUSH1 0x60 PUSH2 0x17CC DUP3 PUSH2 0xEC3 JUMP JUMPDEST POP PUSH0 PUSH2 0x17D6 PUSH2 0x17AB JUMP JUMPDEST SWAP1 POP PUSH0 DUP2 MLOAD GT PUSH2 0x17F4 JUMPI PUSH1 0x40 MLOAD DUP1 PUSH1 0x20 ADD PUSH1 0x40 MSTORE DUP1 PUSH0 DUP2 MSTORE POP PUSH2 0x181F JUMP JUMPDEST DUP1 PUSH2 0x17FE DUP5 PUSH2 0x1C9C JUMP JUMPDEST PUSH1 0x40 MLOAD PUSH1 0x20 ADD PUSH2 0x180F SWAP3 SWAP2 SWAP1 PUSH2 0x284D JUMP JUMPDEST PUSH1 0x40 MLOAD PUSH1 0x20 DUP2 DUP4 SUB SUB DUP2 MSTORE SWAP1 PUSH1 0x40 MSTORE JUMPDEST SWAP2 POP POP SWAP2 SWAP1 POP JUMP JUMPDEST PUSH0 DUP1 DUP3 SUB PUSH2 0x183C JUMPI PUSH1 0x5A PUSH1 0x9 SLOAD LT SWAP1 POP PUSH2 0x18C5 JUMP JUMPDEST PUSH1 0x1 DUP3 SUB PUSH2 0x185D JUMPI PUSH1 0x9 PUSH1 0x5A PUSH2 0x1852 SWAP2 SWAP1 PUSH2 0x27E0 JUMP JUMPDEST PUSH1 0xA SLOAD LT SWAP1 POP PUSH2 0x18C5 JUMP JUMPDEST PUSH1 0x2 DUP3 SUB PUSH2 0x188A JUMPI PUSH1 0x1 PUSH1 0x9 PUSH1 0x5A PUSH2 0x1875 SWAP2 SWAP1 PUSH2 0x27E0 JUMP JUMPDEST PUSH2 0x187F SWAP2 SWAP1 PUSH2 0x27E0 JUMP JUMPDEST PUSH1 0xB SLOAD LT SWAP1 POP PUSH2 0x18C5 JUMP JUMPDEST PUSH1 0x40 MLOAD PUSH32 0x8C379A000000000000000000000000000000000000000000000000000000000 DUP2 MSTORE PUSH1 0x4 ADD PUSH2 0x18BC SWAP1 PUSH2 0x2B21 JUMP JUMPDEST PUSH1 0x40 MLOAD DUP1 SWAP2 SUB SWAP1 REVERT JUMPDEST SWAP2 SWAP1 POP JUMP JUMPDEST DUP1 PUSH1 0x7 PUSH0 DUP5 DUP2 MSTORE PUSH1 0x20 ADD SWAP1 DUP2 MSTORE PUSH1 0x20 ADD PUSH0 KECCAK256 SWAP1 DUP2 PUSH2 0x18E8 SWAP2 SWAP1 PUSH2 0x2CDC JUMP JUMPDEST POP PUSH32 0xF8E1A15ABA9398E019F0B49DF1A4FDE98EE17AE345CB5F6B5E2C27F5033E8CE7 DUP3 PUSH1 0x40 MLOAD PUSH2 0x1918 SWAP2 SWAP1 PUSH2 0x2355 JUMP JUMPDEST PUSH1 0x40 MLOAD DUP1 SWAP2 SUB SWAP1 LOG1 POP POP JUMP JUMPDEST PUSH0 PUSH32 0x1FFC9A700000000000000000000000000000000000000000000000000000000 PUSH28 0xFFFFFFFFFFFFFFFFFFFFFFFFFFFFFFFFFFFFFFFFFFFFFFFFFFFFFFFF NOT AND DUP3 PUSH28 0xFFFFFFFFFFFFFFFFFFFFFFFFFFFFFFFFFFFFFFFFFFFFFFFFFFFFFFFF NOT AND EQ SWAP1 POP SWAP2 SWAP1 POP JUMP JUMPDEST PUSH0 PUSH1 0x3 PUSH0 DUP4 DUP2 MSTORE PUSH1 0x20 ADD SWAP1 DUP2 MSTORE PUSH1 0x20 ADD PUSH0 KECCAK256 PUSH0 SWAP1 SLOAD SWAP1 PUSH2 0x100 EXP SWAP1 DIV PUSH20 0xFFFFFFFFFFFFFFFFFFFFFFFFFFFFFFFFFFFFFFFF AND SWAP1 POP SWAP2 SWAP1 POP JUMP JUMPDEST DUP1 DUP1 PUSH2 0x19FE JUMPI POP PUSH0 PUSH20 0xFFFFFFFFFFFFFFFFFFFFFFFFFFFFFFFFFFFFFFFF AND DUP3 PUSH20 0xFFFFFFFFFFFFFFFFFFFFFFFFFFFFFFFFFFFFFFFF AND EQ ISZERO JUMPDEST ISZERO PUSH2 0x1B30 JUMPI PUSH0 PUSH2 0x1A0D DUP5 PUSH2 0xEC3 JUMP JUMPDEST SWAP1 POP PUSH0 PUSH20 0xFFFFFFFFFFFFFFFFFFFFFFFFFFFFFFFFFFFFFFFF AND DUP4 PUSH20 0xFFFFFFFFFFFFFFFFFFFFFFFFFFFFFFFFFFFFFFFF AND EQ ISZERO DUP1 ISZERO PUSH2 0x1A77 JUMPI POP DUP3 PUSH20 0xFFFFFFFFFFFFFFFFFFFFFFFFFFFFFFFFFFFFFFFF AND DUP2 PUSH20 0xFFFFFFFFFFFFFFFFFFFFFFFFFFFFFFFFFFFFFFFF AND EQ ISZERO JUMPDEST DUP1 ISZERO PUSH2 0x1A8A JUMPI POP PUSH2 0x1A88 DUP2 DUP5 PUSH2 0xBAA JUMP JUMPDEST ISZERO JUMPDEST ISZERO PUSH2 0x1ACC JUMPI DUP3 PUSH1 0x40 MLOAD PUSH32 0xA9FBF51F00000000000000000000000000000000000000000000000000000000 DUP2 MSTORE PUSH1 0x4 ADD PUSH2 0x1AC3 SWAP2 SWAP1 PUSH2 0x2275 JUMP JUMPDEST PUSH1 0x40 MLOAD DUP1 SWAP2 SUB SWAP1 REVERT JUMPDEST DUP2 ISZERO PUSH2 0x1B2E JUMPI DUP4 DUP6 PUSH20 0xFFFFFFFFFFFFFFFFFFFFFFFFFFFFFFFFFFFFFFFF AND DUP3 PUSH20 0xFFFFFFFFFFFFFFFFFFFFFFFFFFFFFFFFFFFFFFFF AND PUSH32 0x8C5BE1E5EBEC7D5BD14F71427D1E84F3DD0314C0F7B2291E5B200AC8C7C3B925 PUSH1 0x40 MLOAD PUSH1 0x40 MLOAD DUP1 SWAP2 SUB SWAP1 LOG4 JUMPDEST POP JUMPDEST DUP4 PUSH1 0x5 PUSH0 DUP6 DUP2 MSTORE PUSH1 0x20 ADD SWAP1 DUP2 MSTORE PUSH1 0x20 ADD PUSH0 KECCAK256 PUSH0 PUSH2 0x100 EXP DUP2 SLOAD DUP2 PUSH20 0xFFFFFFFFFFFFFFFFFFFFFFFFFFFFFFFFFFFFFFFF MUL NOT AND SWAP1 DUP4 PUSH20 0xFFFFFFFFFFFFFFFFFFFFFFFFFFFFFFFFFFFFFFFF AND MUL OR SWAP1 SSTORE POP POP POP POP POP JUMP JUMPDEST PUSH2 0x1B90 DUP4 DUP4 DUP4 PUSH2 0x1D66 JUMP JUMPDEST PUSH2 0x1C43 JUMPI PUSH0 PUSH20 0xFFFFFFFFFFFFFFFFFFFFFFFFFFFFFFFFFFFFFFFF AND DUP4 PUSH20 0xFFFFFFFFFFFFFFFFFFFFFFFFFFFFFFFFFFFFFFFF AND SUB PUSH2 0x1C04 JUMPI DUP1 PUSH1 0x40 MLOAD PUSH32 0x7E27328900000000000000000000000000000000000000000000000000000000 DUP2 MSTORE PUSH1 0x4 ADD PUSH2 0x1BFB SWAP2 SWAP1 PUSH2 0x2355 JUMP JUMPDEST PUSH1 0x40 MLOAD DUP1 SWAP2 SUB SWAP1 REVERT JUMPDEST DUP2 DUP2 PUSH1 0x40 MLOAD PUSH32 0x177E802F00000000000000000000000000000000000000000000000000000000 DUP2 MSTORE PUSH1 0x4 ADD PUSH2 0x1C3A SWAP3 SWAP2 SWAP1 PUSH2 0x2DAB JUMP JUMPDEST PUSH1 0x40 MLOAD DUP1 SWAP2 SUB SWAP1 REVERT JUMPDEST POP POP POP JUMP JUMPDEST PUSH0 DUP1 PUSH32 0xFFFFFFFFFFFFFFFFFFFFFFFFFFFFFFFFFFFFFFFFFFFFFFFFFFFFFFFFFFFFFFFF DUP4 PUSH2 0x1C76 SWAP2 SWAP1 PUSH2 0x2DFF JUMP JUMPDEST SWAP1 POP DUP1 SWAP2 POP POP SWAP2 SWAP1 POP JUMP JUMPDEST PUSH2 0x1C8B DUP4 DUP4 PUSH2 0x1E26 JUMP JUMPDEST PUSH2 0x1C97 PUSH0 DUP5 DUP5 DUP5 PUSH2 0x15F9 JUMP JUMPDEST POP POP POP JUMP JUMPDEST PUSH1 0x60 PUSH0 PUSH1 0x1 PUSH2 0x1CAA DUP5 PUSH2 0x1F19 JUMP JUMPDEST ADD SWAP1 POP PUSH0 DUP2 PUSH8 0xFFFFFFFFFFFFFFFF DUP2 GT ISZERO PUSH2 0x1CC8 JUMPI PUSH2 0x1CC7 PUSH2 0x2409 JUMP JUMPDEST JUMPDEST PUSH1 0x40 MLOAD SWAP1 DUP1 DUP3 MSTORE DUP1 PUSH1 0x1F ADD PUSH1 0x1F NOT AND PUSH1 0x20 ADD DUP3 ADD PUSH1 0x40 MSTORE DUP1 ISZERO PUSH2 0x1CFA JUMPI DUP2 PUSH1 0x20 ADD PUSH1 0x1 DUP3 MUL DUP1 CALLDATASIZE DUP4 CALLDATACOPY DUP1 DUP3 ADD SWAP2 POP POP SWAP1 POP JUMPDEST POP SWAP1 POP PUSH0 DUP3 PUSH1 0x20 ADD DUP3 ADD SWAP1 POP JUMPDEST PUSH1 0x1 ISZERO PUSH2 0x1D5B JUMPI DUP1 DUP1 PUSH1 0x1 SWAP1 SUB SWAP2 POP POP PUSH32 0x3031323334353637383961626364656600000000000000000000000000000000 PUSH1 0xA DUP7 MOD BYTE DUP2 MSTORE8 PUSH1 0xA DUP6 DUP2 PUSH2 0x1D50 JUMPI PUSH2 0x1D4F PUSH2 0x2DD2 JUMP JUMPDEST JUMPDEST DIV SWAP5 POP PUSH0 DUP6 SUB PUSH2 0x1D07 JUMPI JUMPDEST DUP2 SWAP4 POP POP POP POP SWAP2 SWAP1 POP JUMP JUMPDEST PUSH0 DUP1 PUSH20 0xFFFFFFFFFFFFFFFFFFFFFFFFFFFFFFFFFFFFFFFF AND DUP4 PUSH20 0xFFFFFFFFFFFFFFFFFFFFFFFFFFFFFFFFFFFFFFFF AND EQ ISZERO DUP1 ISZERO PUSH2 0x1E1D JUMPI POP DUP3 PUSH20 0xFFFFFFFFFFFFFFFFFFFFFFFFFFFFFFFFFFFFFFFF AND DUP5 PUSH20 0xFFFFFFFFFFFFFFFFFFFFFFFFFFFFFFFFFFFFFFFF AND EQ DUP1 PUSH2 0x1DDE JUMPI POP PUSH2 0x1DDD DUP5 DUP5 PUSH2 0xBAA JUMP JUMPDEST JUMPDEST DUP1 PUSH2 0x1E1C JUMPI POP DUP3 PUSH20 0xFFFFFFFFFFFFFFFFFFFFFFFFFFFFFFFFFFFFFFFF AND PUSH2 0x1E04 DUP4 PUSH2 0xF49 JUMP JUMPDEST PUSH20 0xFFFFFFFFFFFFFFFFFFFFFFFFFFFFFFFFFFFFFFFF AND EQ JUMPDEST JUMPDEST SWAP1 POP SWAP4 SWAP3 POP POP POP JUMP JUMPDEST PUSH0 PUSH20 0xFFFFFFFFFFFFFFFFFFFFFFFFFFFFFFFFFFFFFFFF AND DUP3 PUSH20 0xFFFFFFFFFFFFFFFFFFFFFFFFFFFFFFFFFFFFFFFF AND SUB PUSH2 0x1E96 JUMPI PUSH0 PUSH1 0x40 MLOAD PUSH32 0x64A0AE9200000000000000000000000000000000000000000000000000000000 DUP2 MSTORE PUSH1 0x4 ADD PUSH2 0x1E8D SWAP2 SWAP1 PUSH2 0x2275 JUMP JUMPDEST PUSH1 0x40 MLOAD DUP1 SWAP2 SUB SWAP1 REVERT JUMPDEST PUSH0 PUSH2 0x1EA2 DUP4 DUP4 PUSH0 PUSH2 0xF9B JUMP JUMPDEST SWAP1 POP PUSH0 PUSH20 0xFFFFFFFFFFFFFFFFFFFFFFFFFFFFFFFFFFFFFFFF AND DUP2 PUSH20 0xFFFFFFFFFFFFFFFFFFFFFFFFFFFFFFFFFFFFFFFF AND EQ PUSH2 0x1F14 JUMPI PUSH0 PUSH1 0x40 MLOAD PUSH32 0x73C6AC6E00000000000000000000000000000000000000000000000000000000 DUP2 MSTORE PUSH1 0x4 ADD PUSH2 0x1F0B SWAP2 SWAP1 PUSH2 0x2275 JUMP JUMPDEST PUSH1 0x40 MLOAD DUP1 SWAP2 SUB SWAP1 REVERT JUMPDEST POP POP POP JUMP JUMPDEST PUSH0 DUP1 PUSH0 SWAP1 POP PUSH27 0x184F03E93FF9F4DAA797ED6E38ED64BF6A1F010000000000000000 DUP4 LT PUSH2 0x1F75 JUMPI PUSH27 0x184F03E93FF9F4DAA797ED6E38ED64BF6A1F010000000000000000 DUP4 DUP2 PUSH2 0x1F6B JUMPI PUSH2 0x1F6A PUSH2 0x2DD2 JUMP JUMPDEST JUMPDEST DIV SWAP3 POP PUSH1 0x40 DUP2 ADD SWAP1 POP JUMPDEST PUSH14 0x4EE2D6D415B85ACEF8100000000 DUP4 LT PUSH2 0x1FB2 JUMPI PUSH14 0x4EE2D6D415B85ACEF8100000000 DUP4 DUP2 PUSH2 0x1FA8 JUMPI PUSH2 0x1FA7 PUSH2 0x2DD2 JUMP JUMPDEST JUMPDEST DIV SWAP3 POP PUSH1 0x20 DUP2 ADD SWAP1 POP JUMPDEST PUSH7 0x2386F26FC10000 DUP4 LT PUSH2 0x1FE1 JUMPI PUSH7 0x2386F26FC10000 DUP4 DUP2 PUSH2 0x1FD7 JUMPI PUSH2 0x1FD6 PUSH2 0x2DD2 JUMP JUMPDEST JUMPDEST DIV SWAP3 POP PUSH1 0x10 DUP2 ADD SWAP1 POP JUMPDEST PUSH4 0x5F5E100 DUP4 LT PUSH2 0x200A JUMPI PUSH4 0x5F5E100 DUP4 DUP2 PUSH2 0x2000 JUMPI PUSH2 0x1FFF PUSH2 0x2DD2 JUMP JUMPDEST JUMPDEST DIV SWAP3 POP PUSH1 0x8 DUP2 ADD SWAP1 POP JUMPDEST PUSH2 0x2710 DUP4 LT PUSH2 0x202F JUMPI PUSH2 0x2710 DUP4 DUP2 PUSH2 0x2025 JUMPI PUSH2 0x2024 PUSH2 0x2DD2 JUMP JUMPDEST JUMPDEST DIV SWAP3 POP PUSH1 0x4 DUP2 ADD SWAP1 POP JUMPDEST PUSH1 0x64 DUP4 LT PUSH2 0x2052 JUMPI PUSH1 0x64 DUP4 DUP2 PUSH2 0x2048 JUMPI PUSH2 0x2047 PUSH2 0x2DD2 JUMP JUMPDEST JUMPDEST DIV SWAP3 POP PUSH1 0x2 DUP2 ADD SWAP1 POP JUMPDEST PUSH1 0xA DUP4 LT PUSH2 0x2061 JUMPI PUSH1 0x1 DUP2 ADD SWAP1 POP JUMPDEST DUP1 SWAP2 POP POP SWAP2 SWAP1 POP JUMP JUMPDEST PUSH0 PUSH1 0x40 MLOAD SWAP1 POP SWAP1 JUMP JUMPDEST PUSH0 DUP1 REVERT JUMPDEST PUSH0 DUP1 REVERT JUMPDEST PUSH0 PUSH32 0xFFFFFFFF00000000000000000000000000000000000000000000000000000000 DUP3 AND SWAP1 POP SWAP2 SWAP1 POP JUMP JUMPDEST PUSH2 0x20AF DUP2 PUSH2 0x207B JUMP JUMPDEST DUP2 EQ PUSH2 0x20B9 JUMPI PUSH0 DUP1 REVERT JUMPDEST POP JUMP JUMPDEST PUSH0 DUP2 CALLDATALOAD SWAP1 POP PUSH2 0x20CA DUP2 PUSH2 0x20A6 JUMP JUMPDEST SWAP3 SWAP2 POP POP JUMP JUMPDEST PUSH0 PUSH1 0x20 DUP3 DUP5 SUB SLT ISZERO PUSH2 0x20E5 JUMPI PUSH2 0x20E4 PUSH2 0x2073 JUMP JUMPDEST JUMPDEST PUSH0 PUSH2 0x20F2 DUP5 DUP3 DUP6 ADD PUSH2 0x20BC JUMP JUMPDEST SWAP2 POP POP SWAP3 SWAP2 POP POP JUMP JUMPDEST PUSH0 DUP2 ISZERO ISZERO SWAP1 POP SWAP2 SWAP1 POP JUMP JUMPDEST PUSH2 0x210F DUP2 PUSH2 0x20FB JUMP JUMPDEST DUP3 MSTORE POP POP JUMP JUMPDEST PUSH0 PUSH1 0x20 DUP3 ADD SWAP1 POP PUSH2 0x2128 PUSH0 DUP4 ADD DUP5 PUSH2 0x2106 JUMP JUMPDEST SWAP3 SWAP2 POP POP JUMP JUMPDEST PUSH0 DUP2 MLOAD SWAP1 POP SWAP2 SWAP1 POP JUMP JUMPDEST PUSH0 DUP3 DUP3 MSTORE PUSH1 0x20 DUP3 ADD SWAP1 POP SWAP3 SWAP2 POP POP JUMP JUMPDEST PUSH0 JUMPDEST DUP4 DUP2 LT ISZERO PUSH2 0x2165 JUMPI DUP1 DUP3 ADD MLOAD DUP2 DUP5 ADD MSTORE PUSH1 0x20 DUP2 ADD SWAP1 POP PUSH2 0x214A JUMP JUMPDEST PUSH0 DUP5 DUP5 ADD MSTORE POP POP POP POP JUMP JUMPDEST PUSH0 PUSH1 0x1F NOT PUSH1 0x1F DUP4 ADD AND SWAP1 POP SWAP2 SWAP1 POP JUMP JUMPDEST PUSH0 PUSH2 0x218A DUP3 PUSH2 0x212E JUMP JUMPDEST PUSH2 0x2194 DUP2 DUP6 PUSH2 0x2138 JUMP JUMPDEST SWAP4 POP PUSH2 0x21A4 DUP2 DUP6 PUSH1 0x20 DUP7 ADD PUSH2 0x2148 JUMP JUMPDEST PUSH2 0x21AD DUP2 PUSH2 0x2170 JUMP JUMPDEST DUP5 ADD SWAP2 POP POP SWAP3 SWAP2 POP POP JUMP JUMPDEST PUSH0 PUSH1 0x20 DUP3 ADD SWAP1 POP DUP2 DUP2 SUB PUSH0 DUP4 ADD MSTORE PUSH2 0x21D0 DUP2 DUP5 PUSH2 0x2180 JUMP JUMPDEST SWAP1 POP SWAP3 SWAP2 POP POP JUMP JUMPDEST PUSH0 DUP2 SWAP1 POP SWAP2 SWAP1 POP JUMP JUMPDEST PUSH2 0x21EA DUP2 PUSH2 0x21D8 JUMP JUMPDEST DUP2 EQ PUSH2 0x21F4 JUMPI PUSH0 DUP1 REVERT JUMPDEST POP JUMP JUMPDEST PUSH0 DUP2 CALLDATALOAD SWAP1 POP PUSH2 0x2205 DUP2 PUSH2 0x21E1 JUMP JUMPDEST SWAP3 SWAP2 POP POP JUMP JUMPDEST PUSH0 PUSH1 0x20 DUP3 DUP5 SUB SLT ISZERO PUSH2 0x2220 JUMPI PUSH2 0x221F PUSH2 0x2073 JUMP JUMPDEST JUMPDEST PUSH0 PUSH2 0x222D DUP5 DUP3 DUP6 ADD PUSH2 0x21F7 JUMP JUMPDEST SWAP2 POP POP SWAP3 SWAP2 POP POP JUMP JUMPDEST PUSH0 PUSH20 0xFFFFFFFFFFFFFFFFFFFFFFFFFFFFFFFFFFFFFFFF DUP3 AND SWAP1 POP SWAP2 SWAP1 POP JUMP JUMPDEST PUSH0 PUSH2 0x225F DUP3 PUSH2 0x2236 JUMP JUMPDEST SWAP1 POP SWAP2 SWAP1 POP JUMP JUMPDEST PUSH2 0x226F DUP2 PUSH2 0x2255 JUMP JUMPDEST DUP3 MSTORE POP POP JUMP JUMPDEST PUSH0 PUSH1 0x20 DUP3 ADD SWAP1 POP PUSH2 0x2288 PUSH0 DUP4 ADD DUP5 PUSH2 0x2266 JUMP JUMPDEST SWAP3 SWAP2 POP POP JUMP JUMPDEST PUSH2 0x2297 DUP2 PUSH2 0x2255 JUMP JUMPDEST DUP2 EQ PUSH2 0x22A1 JUMPI PUSH0 DUP1 REVERT JUMPDEST POP JUMP JUMPDEST PUSH0 DUP2 CALLDATALOAD SWAP1 POP PUSH2 0x22B2 DUP2 PUSH2 0x228E JUMP JUMPDEST SWAP3 SWAP2 POP POP JUMP JUMPDEST PUSH0 DUP1 PUSH1 0x40 DUP4 DUP6 SUB SLT ISZERO PUSH2 0x22CE JUMPI PUSH2 0x22CD PUSH2 0x2073 JUMP JUMPDEST JUMPDEST PUSH0 PUSH2 0x22DB DUP6 DUP3 DUP7 ADD PUSH2 0x22A4 JUMP JUMPDEST SWAP3 POP POP PUSH1 0x20 PUSH2 0x22EC DUP6 DUP3 DUP7 ADD PUSH2 0x21F7 JUMP JUMPDEST SWAP2 POP POP SWAP3 POP SWAP3 SWAP1 POP JUMP JUMPDEST PUSH0 DUP1 PUSH0 PUSH1 0x60 DUP5 DUP7 SUB SLT ISZERO PUSH2 0x230D JUMPI PUSH2 0x230C PUSH2 0x2073 JUMP JUMPDEST JUMPDEST PUSH0 PUSH2 0x231A DUP7 DUP3 DUP8 ADD PUSH2 0x22A4 JUMP JUMPDEST SWAP4 POP POP PUSH1 0x20 PUSH2 0x232B DUP7 DUP3 DUP8 ADD PUSH2 0x22A4 JUMP JUMPDEST SWAP3 POP POP PUSH1 0x40 PUSH2 0x233C DUP7 DUP3 DUP8 ADD PUSH2 0x21F7 JUMP JUMPDEST SWAP2 POP POP SWAP3 POP SWAP3 POP SWAP3 JUMP JUMPDEST PUSH2 0x234F DUP2 PUSH2 0x21D8 JUMP JUMPDEST DUP3 MSTORE POP POP JUMP JUMPDEST PUSH0 PUSH1 0x20 DUP3 ADD SWAP1 POP PUSH2 0x2368 PUSH0 DUP4 ADD DUP5 PUSH2 0x2346 JUMP JUMPDEST SWAP3 SWAP2 POP POP JUMP JUMPDEST PUSH0 PUSH1 0x20 DUP3 DUP5 SUB SLT ISZERO PUSH2 0x2383 JUMPI PUSH2 0x2382 PUSH2 0x2073 JUMP JUMPDEST JUMPDEST PUSH0 PUSH2 0x2390 DUP5 DUP3 DUP6 ADD PUSH2 0x22A4 JUMP JUMPDEST SWAP2 POP POP SWAP3 SWAP2 POP POP JUMP JUMPDEST PUSH2 0x23A2 DUP2 PUSH2 0x20FB JUMP JUMPDEST DUP2 EQ PUSH2 0x23AC JUMPI PUSH0 DUP1 REVERT JUMPDEST POP JUMP JUMPDEST PUSH0 DUP2 CALLDATALOAD SWAP1 POP PUSH2 0x23BD DUP2 PUSH2 0x2399 JUMP JUMPDEST SWAP3 SWAP2 POP POP JUMP JUMPDEST PUSH0 DUP1 PUSH1 0x40 DUP4 DUP6 SUB SLT ISZERO PUSH2 0x23D9 JUMPI PUSH2 0x23D8 PUSH2 0x2073 JUMP JUMPDEST JUMPDEST PUSH0 PUSH2 0x23E6 DUP6 DUP3 DUP7 ADD PUSH2 0x22A4 JUMP JUMPDEST SWAP3 POP POP PUSH1 0x20 PUSH2 0x23F7 DUP6 DUP3 DUP7 ADD PUSH2 0x23AF JUMP JUMPDEST SWAP2 POP POP SWAP3 POP SWAP3 SWAP1 POP JUMP JUMPDEST PUSH0 DUP1 REVERT JUMPDEST PUSH0 DUP1 REVERT JUMPDEST PUSH32 0x4E487B7100000000000000000000000000000000000000000000000000000000 PUSH0 MSTORE PUSH1 0x41 PUSH1 0x4 MSTORE PUSH1 0x24 PUSH0 REVERT JUMPDEST PUSH2 0x243F DUP3 PUSH2 0x2170 JUMP JUMPDEST DUP2 ADD DUP2 DUP2 LT PUSH8 0xFFFFFFFFFFFFFFFF DUP3 GT OR ISZERO PUSH2 0x245E JUMPI PUSH2 0x245D PUSH2 0x2409 JUMP JUMPDEST JUMPDEST DUP1 PUSH1 0x40 MSTORE POP POP POP JUMP JUMPDEST PUSH0 PUSH2 0x2470 PUSH2 0x206A JUMP JUMPDEST SWAP1 POP PUSH2 0x247C DUP3 DUP3 PUSH2 0x2436 JUMP JUMPDEST SWAP2 SWAP1 POP JUMP JUMPDEST PUSH0 PUSH8 0xFFFFFFFFFFFFFFFF DUP3 GT ISZERO PUSH2 0x249B JUMPI PUSH2 0x249A PUSH2 0x2409 JUMP JUMPDEST JUMPDEST PUSH2 0x24A4 DUP3 PUSH2 0x2170 JUMP JUMPDEST SWAP1 POP PUSH1 0x20 DUP2 ADD SWAP1 POP SWAP2 SWAP1 POP JUMP JUMPDEST DUP3 DUP2 DUP4 CALLDATACOPY PUSH0 DUP4 DUP4 ADD MSTORE POP POP POP JUMP JUMPDEST PUSH0 PUSH2 0x24D1 PUSH2 0x24CC DUP5 PUSH2 0x2481 JUMP JUMPDEST PUSH2 0x2467 JUMP JUMPDEST SWAP1 POP DUP3 DUP2 MSTORE PUSH1 0x20 DUP2 ADD DUP5 DUP5 DUP5 ADD GT ISZERO PUSH2 0x24ED JUMPI PUSH2 0x24EC PUSH2 0x2405 JUMP JUMPDEST JUMPDEST PUSH2 0x24F8 DUP5 DUP3 DUP6 PUSH2 0x24B1 JUMP JUMPDEST POP SWAP4 SWAP3 POP POP POP JUMP JUMPDEST PUSH0 DUP3 PUSH1 0x1F DUP4 ADD SLT PUSH2 0x2514 JUMPI PUSH2 0x2513 PUSH2 0x2401 JUMP JUMPDEST JUMPDEST DUP2 CALLDATALOAD PUSH2 0x2524 DUP5 DUP3 PUSH1 0x20 DUP7 ADD PUSH2 0x24BF JUMP JUMPDEST SWAP2 POP POP SWAP3 SWAP2 POP POP JUMP JUMPDEST PUSH0 DUP1 PUSH0 DUP1 PUSH1 0x80 DUP6 DUP8 SUB SLT ISZERO PUSH2 0x2545 JUMPI PUSH2 0x2544 PUSH2 0x2073 JUMP JUMPDEST JUMPDEST PUSH0 PUSH2 0x2552 DUP8 DUP3 DUP9 ADD PUSH2 0x22A4 JUMP JUMPDEST SWAP5 POP POP PUSH1 0x20 PUSH2 0x2563 DUP8 DUP3 DUP9 ADD PUSH2 0x22A4 JUMP JUMPDEST SWAP4 POP POP PUSH1 0x40 PUSH2 0x2574 DUP8 DUP3 DUP9 ADD PUSH2 0x21F7 JUMP JUMPDEST SWAP3 POP POP PUSH1 0x60 DUP6 ADD CALLDATALOAD PUSH8 0xFFFFFFFFFFFFFFFF DUP2 GT ISZERO PUSH2 0x2595 JUMPI PUSH2 0x2594 PUSH2 0x2077 JUMP JUMPDEST JUMPDEST PUSH2 0x25A1 DUP8 DUP3 DUP9 ADD PUSH2 0x2500 JUMP JUMPDEST SWAP2 POP POP SWAP3 SWAP6 SWAP2 SWAP5 POP SWAP3 POP JUMP JUMPDEST PUSH0 DUP1 PUSH1 0x40 DUP4 DUP6 SUB SLT ISZERO PUSH2 0x25C3 JUMPI PUSH2 0x25C2 PUSH2 0x2073 JUMP JUMPDEST JUMPDEST PUSH0 PUSH2 0x25D0 DUP6 DUP3 DUP7 ADD PUSH2 0x22A4 JUMP JUMPDEST SWAP3 POP POP PUSH1 0x20 PUSH2 0x25E1 DUP6 DUP3 DUP7 ADD PUSH2 0x22A4 JUMP JUMPDEST SWAP2 POP POP SWAP3 POP SWAP3 SWAP1 POP JUMP JUMPDEST PUSH0 DUP1 REVERT JUMPDEST PUSH0 DUP1 REVERT JUMPDEST PUSH0 DUP1 DUP4 PUSH1 0x1F DUP5 ADD SLT PUSH2 0x2608 JUMPI PUSH2 0x2607 PUSH2 0x2401 JUMP JUMPDEST JUMPDEST DUP3 CALLDATALOAD SWAP1 POP PUSH8 0xFFFFFFFFFFFFFFFF DUP2 GT ISZERO PUSH2 0x2625 JUMPI PUSH2 0x2624 PUSH2 0x25EB JUMP JUMPDEST JUMPDEST PUSH1 0x20 DUP4 ADD SWAP2 POP DUP4 PUSH1 0x1 DUP3 MUL DUP4 ADD GT ISZERO PUSH2 0x2641 JUMPI PUSH2 0x2640 PUSH2 0x25EF JUMP JUMPDEST JUMPDEST SWAP3 POP SWAP3 SWAP1 POP JUMP JUMPDEST PUSH0 DUP1 PUSH0 DUP1 PUSH1 0x60 DUP6 DUP8 SUB SLT ISZERO PUSH2 0x2660 JUMPI PUSH2 0x265F PUSH2 0x2073 JUMP JUMPDEST JUMPDEST PUSH0 PUSH2 0x266D DUP8 DUP3 DUP9 ADD PUSH2 0x22A4 JUMP JUMPDEST SWAP5 POP POP PUSH1 0x20 PUSH2 0x267E DUP8 DUP3 DUP9 ADD PUSH2 0x21F7 JUMP JUMPDEST SWAP4 POP POP PUSH1 0x40 DUP6 ADD CALLDATALOAD PUSH8 0xFFFFFFFFFFFFFFFF DUP2 GT ISZERO PUSH2 0x269F JUMPI PUSH2 0x269E PUSH2 0x2077 JUMP JUMPDEST JUMPDEST PUSH2 0x26AB DUP8 DUP3 DUP9 ADD PUSH2 0x25F3 JUMP JUMPDEST SWAP3 POP SWAP3 POP POP SWAP3 SWAP6 SWAP2 SWAP5 POP SWAP3 POP JUMP JUMPDEST PUSH32 0x4E487B7100000000000000000000000000000000000000000000000000000000 PUSH0 MSTORE PUSH1 0x22 PUSH1 0x4 MSTORE PUSH1 0x24 PUSH0 REVERT JUMPDEST PUSH0 PUSH1 0x2 DUP3 DIV SWAP1 POP PUSH1 0x1 DUP3 AND DUP1 PUSH2 0x26FD JUMPI PUSH1 0x7F DUP3 AND SWAP2 POP JUMPDEST PUSH1 0x20 DUP3 LT DUP2 SUB PUSH2 0x2710 JUMPI PUSH2 0x270F PUSH2 0x26B9 JUMP JUMPDEST JUMPDEST POP SWAP2 SWAP1 POP JUMP JUMPDEST PUSH0 PUSH1 0x60 DUP3 ADD SWAP1 POP PUSH2 0x2729 PUSH0 DUP4 ADD DUP7 PUSH2 0x2266 JUMP JUMPDEST PUSH2 0x2736 PUSH1 0x20 DUP4 ADD DUP6 PUSH2 0x2346 JUMP JUMPDEST PUSH2 0x2743 PUSH1 0x40 DUP4 ADD DUP5 PUSH2 0x2266 JUMP JUMPDEST SWAP5 SWAP4 POP POP POP POP JUMP JUMPDEST PUSH32 0x4D696E74696E67206C696D697420726561636865640000000000000000000000 PUSH0 DUP3 ADD MSTORE POP JUMP JUMPDEST PUSH0 PUSH2 0x277F PUSH1 0x15 DUP4 PUSH2 0x2138 JUMP JUMPDEST SWAP2 POP PUSH2 0x278A DUP3 PUSH2 0x274B JUMP JUMPDEST PUSH1 0x20 DUP3 ADD SWAP1 POP SWAP2 SWAP1 POP JUMP JUMPDEST PUSH0 PUSH1 0x20 DUP3 ADD SWAP1 POP DUP2 DUP2 SUB PUSH0 DUP4 ADD MSTORE PUSH2 0x27AC DUP2 PUSH2 0x2773 JUMP JUMPDEST SWAP1 POP SWAP2 SWAP1 POP JUMP JUMPDEST PUSH32 0x4E487B7100000000000000000000000000000000000000000000000000000000 PUSH0 MSTORE PUSH1 0x11 PUSH1 0x4 MSTORE PUSH1 0x24 PUSH0 REVERT JUMPDEST PUSH0 PUSH2 0x27EA DUP3 PUSH2 0x21D8 JUMP JUMPDEST SWAP2 POP PUSH2 0x27F5 DUP4 PUSH2 0x21D8 JUMP JUMPDEST SWAP3 POP DUP3 DUP3 ADD SWAP1 POP DUP1 DUP3 GT ISZERO PUSH2 0x280D JUMPI PUSH2 0x280C PUSH2 0x27B3 JUMP JUMPDEST JUMPDEST SWAP3 SWAP2 POP POP JUMP JUMPDEST PUSH0 DUP2 SWAP1 POP SWAP3 SWAP2 POP POP JUMP JUMPDEST PUSH0 PUSH2 0x2827 DUP3 PUSH2 0x212E JUMP JUMPDEST PUSH2 0x2831 DUP2 DUP6 PUSH2 0x2813 JUMP JUMPDEST SWAP4 POP PUSH2 0x2841 DUP2 DUP6 PUSH1 0x20 DUP7 ADD PUSH2 0x2148 JUMP JUMPDEST DUP1 DUP5 ADD SWAP2 POP POP SWAP3 SWAP2 POP POP JUMP JUMPDEST PUSH0 PUSH2 0x2858 DUP3 DUP6 PUSH2 0x281D JUMP JUMPDEST SWAP2 POP PUSH2 0x2864 DUP3 DUP5 PUSH2 0x281D JUMP JUMPDEST SWAP2 POP DUP2 SWAP1 POP SWAP4 SWAP3 POP POP POP JUMP JUMPDEST PUSH32 0x4D617820737570706C7920666F72207468697320726172697479207469657220 PUSH0 DUP3 ADD MSTORE PUSH32 0x686173206265656E207265616368656400000000000000000000000000000000 PUSH1 0x20 DUP3 ADD MSTORE POP JUMP JUMPDEST PUSH0 PUSH2 0x28CA PUSH1 0x30 DUP4 PUSH2 0x2138 JUMP JUMPDEST SWAP2 POP PUSH2 0x28D5 DUP3 PUSH2 0x2870 JUMP JUMPDEST PUSH1 0x40 DUP3 ADD SWAP1 POP SWAP2 SWAP1 POP JUMP JUMPDEST PUSH0 PUSH1 0x20 DUP3 ADD SWAP1 POP DUP2 DUP2 SUB PUSH0 DUP4 ADD MSTORE PUSH2 0x28F7 DUP2 PUSH2 0x28BE JUMP JUMPDEST SWAP1 POP SWAP2 SWAP1 POP JUMP JUMPDEST PUSH0 PUSH2 0x2908 DUP3 PUSH2 0x21D8 JUMP JUMPDEST SWAP2 POP PUSH2 0x2913 DUP4 PUSH2 0x21D8 JUMP JUMPDEST SWAP3 POP DUP3 DUP3 SUB SWAP1 POP DUP2 DUP2 GT ISZERO PUSH2 0x292B JUMPI PUSH2 0x292A PUSH2 0x27B3 JUMP JUMPDEST JUMPDEST SWAP3 SWAP2 POP POP JUMP JUMPDEST PUSH0 DUP2 SWAP1 POP SWAP2 SWAP1 POP JUMP JUMPDEST PUSH0 DUP2 SWAP1 POP SWAP2 SWAP1 POP JUMP JUMPDEST PUSH2 0x2954 PUSH2 0x294F DUP3 PUSH2 0x2931 JUMP JUMPDEST PUSH2 0x293A JUMP JUMPDEST DUP3 MSTORE POP POP JUMP JUMPDEST PUSH0 PUSH2 0x2965 DUP3 DUP5 PUSH2 0x2943 JUMP JUMPDEST PUSH1 0x20 DUP3 ADD SWAP2 POP DUP2 SWAP1 POP SWAP3 SWAP2 POP POP JUMP JUMPDEST PUSH0 PUSH2 0x297E DUP3 PUSH2 0x21D8 JUMP JUMPDEST SWAP2 POP PUSH2 0x2989 DUP4 PUSH2 0x21D8 JUMP JUMPDEST SWAP3 POP DUP3 DUP3 MUL PUSH2 0x2997 DUP2 PUSH2 0x21D8 JUMP JUMPDEST SWAP2 POP DUP3 DUP3 DIV DUP5 EQ DUP4 ISZERO OR PUSH2 0x29AE JUMPI PUSH2 0x29AD PUSH2 0x27B3 JUMP JUMPDEST JUMPDEST POP SWAP3 SWAP2 POP POP JUMP JUMPDEST PUSH0 PUSH2 0x29BF DUP3 PUSH2 0x21D8 JUMP JUMPDEST SWAP2 POP PUSH32 0xFFFFFFFFFFFFFFFFFFFFFFFFFFFFFFFFFFFFFFFFFFFFFFFFFFFFFFFFFFFFFFFF DUP3 SUB PUSH2 0x29F1 JUMPI PUSH2 0x29F0 PUSH2 0x27B3 JUMP JUMPDEST JUMPDEST PUSH1 0x1 DUP3 ADD SWAP1 POP SWAP2 SWAP1 POP JUMP JUMPDEST PUSH0 DUP2 MLOAD SWAP1 POP SWAP2 SWAP1 POP JUMP JUMPDEST PUSH0 DUP3 DUP3 MSTORE PUSH1 0x20 DUP3 ADD SWAP1 POP SWAP3 SWAP2 POP POP JUMP JUMPDEST PUSH0 PUSH2 0x2A20 DUP3 PUSH2 0x29FC JUMP JUMPDEST PUSH2 0x2A2A DUP2 DUP6 PUSH2 0x2A06 JUMP JUMPDEST SWAP4 POP PUSH2 0x2A3A DUP2 DUP6 PUSH1 0x20 DUP7 ADD PUSH2 0x2148 JUMP JUMPDEST PUSH2 0x2A43 DUP2 PUSH2 0x2170 JUMP JUMPDEST DUP5 ADD SWAP2 POP POP SWAP3 SWAP2 POP POP JUMP JUMPDEST PUSH0 PUSH1 0x80 DUP3 ADD SWAP1 POP PUSH2 0x2A61 PUSH0 DUP4 ADD DUP8 PUSH2 0x2266 JUMP JUMPDEST PUSH2 0x2A6E PUSH1 0x20 DUP4 ADD DUP7 PUSH2 0x2266 JUMP JUMPDEST PUSH2 0x2A7B PUSH1 0x40 DUP4 ADD DUP6 PUSH2 0x2346 JUMP JUMPDEST DUP2 DUP2 SUB PUSH1 0x60 DUP4 ADD MSTORE PUSH2 0x2A8D DUP2 DUP5 PUSH2 0x2A16 JUMP JUMPDEST SWAP1 POP SWAP6 SWAP5 POP POP POP POP POP JUMP JUMPDEST PUSH0 DUP2 MLOAD SWAP1 POP PUSH2 0x2AA6 DUP2 PUSH2 0x20A6 JUMP JUMPDEST SWAP3 SWAP2 POP POP JUMP JUMPDEST PUSH0 PUSH1 0x20 DUP3 DUP5 SUB SLT ISZERO PUSH2 0x2AC1 JUMPI PUSH2 0x2AC0 PUSH2 0x2073 JUMP JUMPDEST JUMPDEST PUSH0 PUSH2 0x2ACE DUP5 DUP3 DUP6 ADD PUSH2 0x2A98 JUMP JUMPDEST SWAP2 POP POP SWAP3 SWAP2 POP POP JUMP JUMPDEST PUSH32 0x496E76616C696420726172697479207469657200000000000000000000000000 PUSH0 DUP3 ADD MSTORE POP JUMP JUMPDEST PUSH0 PUSH2 0x2B0B PUSH1 0x13 DUP4 PUSH2 0x2138 JUMP JUMPDEST SWAP2 POP PUSH2 0x2B16 DUP3 PUSH2 0x2AD7 JUMP JUMPDEST PUSH1 0x20 DUP3 ADD SWAP1 POP SWAP2 SWAP1 POP JUMP JUMPDEST PUSH0 PUSH1 0x20 DUP3 ADD SWAP1 POP DUP2 DUP2 SUB PUSH0 DUP4 ADD MSTORE PUSH2 0x2B38 DUP2 PUSH2 0x2AFF JUMP JUMPDEST SWAP1 POP SWAP2 SWAP1 POP JUMP JUMPDEST PUSH0 DUP2 SWAP1 POP DUP2 PUSH0 MSTORE PUSH1 0x20 PUSH0 KECCAK256 SWAP1 POP SWAP2 SWAP1 POP JUMP JUMPDEST PUSH0 PUSH1 0x20 PUSH1 0x1F DUP4 ADD DIV SWAP1 POP SWAP2 SWAP1 POP JUMP JUMPDEST PUSH0 DUP3 DUP3 SHL SWAP1 POP SWAP3 SWAP2 POP POP JUMP JUMPDEST PUSH0 PUSH1 0x8 DUP4 MUL PUSH2 0x2B9B PUSH32 0xFFFFFFFFFFFFFFFFFFFFFFFFFFFFFFFFFFFFFFFFFFFFFFFFFFFFFFFFFFFFFFFF DUP3 PUSH2 0x2B60 JUMP JUMPDEST PUSH2 0x2BA5 DUP7 DUP4 PUSH2 0x2B60 JUMP JUMPDEST SWAP6 POP DUP1 NOT DUP5 AND SWAP4 POP DUP1 DUP7 AND DUP5 OR SWAP3 POP POP POP SWAP4 SWAP3 POP POP POP JUMP JUMPDEST PUSH0 DUP2 SWAP1 POP SWAP2 SWAP1 POP JUMP JUMPDEST PUSH0 PUSH2 0x2BE0 PUSH2 0x2BDB PUSH2 0x2BD6 DUP5 PUSH2 0x21D8 JUMP JUMPDEST PUSH2 0x2BBD JUMP JUMPDEST PUSH2 0x21D8 JUMP JUMPDEST SWAP1 POP SWAP2 SWAP1 POP JUMP JUMPDEST PUSH0 DUP2 SWAP1 POP SWAP2 SWAP1 POP JUMP JUMPDEST PUSH2 0x2BF9 DUP4 PUSH2 0x2BC6 JUMP JUMPDEST PUSH2 0x2C0D PUSH2 0x2C05 DUP3 PUSH2 0x2BE7 JUMP JUMPDEST DUP5 DUP5 SLOAD PUSH2 0x2B6C JUMP JUMPDEST DUP3 SSTORE POP POP POP POP JUMP JUMPDEST PUSH0 SWAP1 JUMP JUMPDEST PUSH2 0x2C21 PUSH2 0x2C15 JUMP JUMPDEST PUSH2 0x2C2C DUP2 DUP5 DUP5 PUSH2 0x2BF0 JUMP JUMPDEST POP POP POP JUMP JUMPDEST JUMPDEST DUP2 DUP2 LT ISZERO PUSH2 0x2C4F JUMPI PUSH2 0x2C44 PUSH0 DUP3 PUSH2 0x2C19 JUMP JUMPDEST PUSH1 0x1 DUP2 ADD SWAP1 POP PUSH2 0x2C32 JUMP JUMPDEST POP POP JUMP JUMPDEST PUSH1 0x1F DUP3 GT ISZERO PUSH2 0x2C94 JUMPI PUSH2 0x2C65 DUP2 PUSH2 0x2B3F JUMP JUMPDEST PUSH2 0x2C6E DUP5 PUSH2 0x2B51 JUMP JUMPDEST DUP2 ADD PUSH1 0x20 DUP6 LT ISZERO PUSH2 0x2C7D JUMPI DUP2 SWAP1 POP JUMPDEST PUSH2 0x2C91 PUSH2 0x2C89 DUP6 PUSH2 0x2B51 JUMP JUMPDEST DUP4 ADD DUP3 PUSH2 0x2C31 JUMP JUMPDEST POP POP JUMPDEST POP POP POP JUMP JUMPDEST PUSH0 DUP3 DUP3 SHR SWAP1 POP SWAP3 SWAP2 POP POP JUMP JUMPDEST PUSH0 PUSH2 0x2CB4 PUSH0 NOT DUP5 PUSH1 0x8 MUL PUSH2 0x2C99 JUMP JUMPDEST NOT DUP1 DUP4 AND SWAP2 POP POP SWAP3 SWAP2 POP POP JUMP JUMPDEST PUSH0 PUSH2 0x2CCC DUP4 DUP4 PUSH2 0x2CA5 JUMP JUMPDEST SWAP2 POP DUP3 PUSH1 0x2 MUL DUP3 OR SWAP1 POP SWAP3 SWAP2 POP POP JUMP JUMPDEST PUSH2 0x2CE5 DUP3 PUSH2 0x212E JUMP JUMPDEST PUSH8 0xFFFFFFFFFFFFFFFF DUP2 GT ISZERO PUSH2 0x2CFE JUMPI PUSH2 0x2CFD PUSH2 0x2409 JUMP JUMPDEST JUMPDEST PUSH2 0x2D08 DUP3 SLOAD PUSH2 0x26E6 JUMP JUMPDEST PUSH2 0x2D13 DUP3 DUP3 DUP6 PUSH2 0x2C53 JUMP JUMPDEST PUSH0 PUSH1 0x20 SWAP1 POP PUSH1 0x1F DUP4 GT PUSH1 0x1 DUP2 EQ PUSH2 0x2D44 JUMPI PUSH0 DUP5 ISZERO PUSH2 0x2D32 JUMPI DUP3 DUP8 ADD MLOAD SWAP1 POP JUMPDEST PUSH2 0x2D3C DUP6 DUP3 PUSH2 0x2CC1 JUMP JUMPDEST DUP7 SSTORE POP PUSH2 0x2DA3 JUMP JUMPDEST PUSH1 0x1F NOT DUP5 AND PUSH2 0x2D52 DUP7 PUSH2 0x2B3F JUMP JUMPDEST PUSH0 JUMPDEST DUP3 DUP2 LT ISZERO PUSH2 0x2D79 JUMPI DUP5 DUP10 ADD MLOAD DUP3 SSTORE PUSH1 0x1 DUP3 ADD SWAP2 POP PUSH1 0x20 DUP6 ADD SWAP5 POP PUSH1 0x20 DUP2 ADD SWAP1 POP PUSH2 0x2D54 JUMP JUMPDEST DUP7 DUP4 LT ISZERO PUSH2 0x2D96 JUMPI DUP5 DUP10 ADD MLOAD PUSH2 0x2D92 PUSH1 0x1F DUP10 AND DUP3 PUSH2 0x2CA5 JUMP JUMPDEST DUP4 SSTORE POP JUMPDEST PUSH1 0x1 PUSH1 0x2 DUP9 MUL ADD DUP9 SSTORE POP POP POP JUMPDEST POP POP POP POP POP POP JUMP JUMPDEST PUSH0 PUSH1 0x40 DUP3 ADD SWAP1 POP PUSH2 0x2DBE PUSH0 DUP4 ADD DUP6 PUSH2 0x2266 JUMP JUMPDEST PUSH2 0x2DCB PUSH1 0x20 DUP4 ADD DUP5 PUSH2 0x2346 JUMP JUMPDEST SWAP4 SWAP3 POP POP POP JUMP JUMPDEST PUSH32 0x4E487B7100000000000000000000000000000000000000000000000000000000 PUSH0 MSTORE PUSH1 0x12 PUSH1 0x4 MSTORE PUSH1 0x24 PUSH0 REVERT JUMPDEST PUSH0 PUSH2 0x2E09 DUP3 PUSH2 0x21D8 JUMP JUMPDEST SWAP2 POP PUSH2 0x2E14 DUP4 PUSH2 0x21D8 JUMP JUMPDEST SWAP3 POP DUP3 PUSH2 0x2E24 JUMPI PUSH2 0x2E23 PUSH2 0x2DD2 JUMP JUMPDEST JUMPDEST DUP3 DUP3 DIV SWAP1 POP SWAP3 SWAP2 POP POP JUMP INVALID LOG2 PUSH5 0x6970667358 0x22 SLT KECCAK256 COINBASE OR 0xF8 0xEB SELFDESTRUCT 0xAB PUSH24 0xC6EB87292D167619C37CAEA5691F5FC219A39F77748ABDE8 PUSH6 0x64736F6C6343 STOP ADDMOD XOR STOP CALLER "
		},
		"gasEstimates": {
			"creation": {
				"codeDepositCost": "2375400",
				"executionCost": "infinite",
				"totalCost": "infinite"
			},
			"external": {
				"COMMON_MAX()": "414",
				"COMMON_PROBABILITY()": "436",
				"LEGENDARY_MAX()": "infinite",
				"LEGENDARY_PROBABILITY()": "435",
				"MAX_SUPPLY()": "437",
				"RARE_MAX()": "infinite",
				"RARE_PROBABILITY()": "392",
				"approve(address,uint256)": "infinite",
				"balanceOf(address)": "infinite",
				"batchMintCreatures(address,uint256)": "infinite",
				"commonMinted()": "2470",
				"getApproved(uint256)": "infinite",
				"isApprovedForAll(address,address)": "infinite",
				"legendaryMinted()": "2469",
				"mintCreatureWithRarity(address,uint256,string)": "infinite",
				"name()": "infinite",
				"owner()": "2626",
				"ownerOf(uint256)": "infinite",
				"rareMinted()": "2515",
				"renounceOwnership()": "infinite",
				"safeTransferFrom(address,address,uint256)": "infinite",
				"safeTransferFrom(address,address,uint256,bytes)": "infinite",
				"setApprovalForAll(address,bool)": "infinite",
				"supportsInterface(bytes4)": "904",
				"symbol()": "infinite",
				"tokenRarity(uint256)": "infinite",
				"tokenURI(uint256)": "infinite",
				"transferFrom(address,address,uint256)": "infinite",
				"transferOwnership(address)": "infinite"
			},
			"internal": {
				"_checkRarityLimits(uint256)": "infinite",
				"_setRarity(uint256,uint256)": "22209",
				"_updateMintedCounters(uint256)": "24435",
				"calculateProbability(uint256)": "infinite",
				"getRamdonRarity()": "infinite"
			}
		},
		"methodIdentifiers": {
			"COMMON_MAX()": "e5243684",
			"COMMON_PROBABILITY()": "c1f00f6c",
			"LEGENDARY_MAX()": "a7877fcd",
			"LEGENDARY_PROBABILITY()": "ff552e44",
			"MAX_SUPPLY()": "32cb6b0c",
			"RARE_MAX()": "c91dbd1d",
			"RARE_PROBABILITY()": "b51cff38",
			"approve(address,uint256)": "095ea7b3",
			"balanceOf(address)": "70a08231",
			"batchMintCreatures(address,uint256)": "36455fbe",
			"commonMinted()": "66435c06",
			"getApproved(uint256)": "081812fc",
			"isApprovedForAll(address,address)": "e985e9c5",
			"legendaryMinted()": "e9aac102",
			"mintCreatureWithRarity(address,uint256,string)": "feb4ee30",
			"name()": "06fdde03",
			"owner()": "8da5cb5b",
			"ownerOf(uint256)": "6352211e",
			"rareMinted()": "2f3e1b63",
			"renounceOwnership()": "715018a6",
			"safeTransferFrom(address,address,uint256)": "42842e0e",
			"safeTransferFrom(address,address,uint256,bytes)": "b88d4fde",
			"setApprovalForAll(address,bool)": "a22cb465",
			"supportsInterface(bytes4)": "01ffc9a7",
			"symbol()": "95d89b41",
			"tokenRarity(uint256)": "afb0a369",
			"tokenURI(uint256)": "c87b56dd",
			"transferFrom(address,address,uint256)": "23b872dd",
			"transferOwnership(address)": "f2fde38b"
		}
	},
	"abi": [
		{
			"inputs": [],
			"stateMutability": "nonpayable",
			"type": "constructor"
		},
		{
			"inputs": [
				{
					"internalType": "address",
					"name": "sender",
					"type": "address"
				},
				{
					"internalType": "uint256",
					"name": "tokenId",
					"type": "uint256"
				},
				{
					"internalType": "address",
					"name": "owner",
					"type": "address"
				}
			],
			"name": "ERC721IncorrectOwner",
			"type": "error"
		},
		{
			"inputs": [
				{
					"internalType": "address",
					"name": "operator",
					"type": "address"
				},
				{
					"internalType": "uint256",
					"name": "tokenId",
					"type": "uint256"
				}
			],
			"name": "ERC721InsufficientApproval",
			"type": "error"
		},
		{
			"inputs": [
				{
					"internalType": "address",
					"name": "approver",
					"type": "address"
				}
			],
			"name": "ERC721InvalidApprover",
			"type": "error"
		},
		{
			"inputs": [
				{
					"internalType": "address",
					"name": "operator",
					"type": "address"
				}
			],
			"name": "ERC721InvalidOperator",
			"type": "error"
		},
		{
			"inputs": [
				{
					"internalType": "address",
					"name": "owner",
					"type": "address"
				}
			],
			"name": "ERC721InvalidOwner",
			"type": "error"
		},
		{
			"inputs": [
				{
					"internalType": "address",
					"name": "receiver",
					"type": "address"
				}
			],
			"name": "ERC721InvalidReceiver",
			"type": "error"
		},
		{
			"inputs": [
				{
					"internalType": "address",
					"name": "sender",
					"type": "address"
				}
			],
			"name": "ERC721InvalidSender",
			"type": "error"
		},
		{
			"inputs": [
				{
					"internalType": "uint256",
					"name": "tokenId",
					"type": "uint256"
				}
			],
			"name": "ERC721NonexistentToken",
			"type": "error"
		},
		{
			"inputs": [
				{
					"internalType": "address",
					"name": "owner",
					"type": "address"
				}
			],
			"name": "OwnableInvalidOwner",
			"type": "error"
		},
		{
			"inputs": [
				{
					"internalType": "address",
					"name": "account",
					"type": "address"
				}
			],
			"name": "OwnableUnauthorizedAccount",
			"type": "error"
		},
		{
			"anonymous": false,
			"inputs": [
				{
					"indexed": true,
					"internalType": "address",
					"name": "owner",
					"type": "address"
				},
				{
					"indexed": true,
					"internalType": "address",
					"name": "approved",
					"type": "address"
				},
				{
					"indexed": true,
					"internalType": "uint256",
					"name": "tokenId",
					"type": "uint256"
				}
			],
			"name": "Approval",
			"type": "event"
		},
		{
			"anonymous": false,
			"inputs": [
				{
					"indexed": true,
					"internalType": "address",
					"name": "owner",
					"type": "address"
				},
				{
					"indexed": true,
					"internalType": "address",
					"name": "operator",
					"type": "address"
				},
				{
					"indexed": false,
					"internalType": "bool",
					"name": "approved",
					"type": "bool"
				}
			],
			"name": "ApprovalForAll",
			"type": "event"
		},
		{
			"anonymous": false,
			"inputs": [
				{
					"indexed": false,
					"internalType": "uint256",
					"name": "_fromTokenId",
					"type": "uint256"
				},
				{
					"indexed": false,
					"internalType": "uint256",
					"name": "_toTokenId",
					"type": "uint256"
				}
			],
			"name": "BatchMetadataUpdate",
			"type": "event"
		},
		{
			"anonymous": false,
			"inputs": [
				{
					"indexed": false,
					"internalType": "uint256",
					"name": "_tokenId",
					"type": "uint256"
				}
			],
			"name": "MetadataUpdate",
			"type": "event"
		},
		{
			"anonymous": false,
			"inputs": [
				{
					"indexed": true,
					"internalType": "address",
					"name": "previousOwner",
					"type": "address"
				},
				{
					"indexed": true,
					"internalType": "address",
					"name": "newOwner",
					"type": "address"
				}
			],
			"name": "OwnershipTransferred",
			"type": "event"
		},
		{
			"anonymous": false,
			"inputs": [
				{
					"indexed": true,
					"internalType": "address",
					"name": "from",
					"type": "address"
				},
				{
					"indexed": true,
					"internalType": "address",
					"name": "to",
					"type": "address"
				},
				{
					"indexed": true,
					"internalType": "uint256",
					"name": "tokenId",
					"type": "uint256"
				}
			],
			"name": "Transfer",
			"type": "event"
		},
		{
			"inputs": [],
			"name": "COMMON_MAX",
			"outputs": [
				{
					"internalType": "uint256",
					"name": "",
					"type": "uint256"
				}
			],
			"stateMutability": "view",
			"type": "function"
		},
		{
			"inputs": [],
			"name": "COMMON_PROBABILITY",
			"outputs": [
				{
					"internalType": "uint256",
					"name": "",
					"type": "uint256"
				}
			],
			"stateMutability": "view",
			"type": "function"
		},
		{
			"inputs": [],
			"name": "LEGENDARY_MAX",
			"outputs": [
				{
					"internalType": "uint256",
					"name": "",
					"type": "uint256"
				}
			],
			"stateMutability": "view",
			"type": "function"
		},
		{
			"inputs": [],
			"name": "LEGENDARY_PROBABILITY",
			"outputs": [
				{
					"internalType": "uint256",
					"name": "",
					"type": "uint256"
				}
			],
			"stateMutability": "view",
			"type": "function"
		},
		{
			"inputs": [],
			"name": "MAX_SUPPLY",
			"outputs": [
				{
					"internalType": "uint256",
					"name": "",
					"type": "uint256"
				}
			],
			"stateMutability": "view",
			"type": "function"
		},
		{
			"inputs": [],
			"name": "RARE_MAX",
			"outputs": [
				{
					"internalType": "uint256",
					"name": "",
					"type": "uint256"
				}
			],
			"stateMutability": "view",
			"type": "function"
		},
		{
			"inputs": [],
			"name": "RARE_PROBABILITY",
			"outputs": [
				{
					"internalType": "uint256",
					"name": "",
					"type": "uint256"
				}
			],
			"stateMutability": "view",
			"type": "function"
		},
		{
			"inputs": [
				{
					"internalType": "address",
					"name": "to",
					"type": "address"
				},
				{
					"internalType": "uint256",
					"name": "tokenId",
					"type": "uint256"
				}
			],
			"name": "approve",
			"outputs": [],
			"stateMutability": "nonpayable",
			"type": "function"
		},
		{
			"inputs": [
				{
					"internalType": "address",
					"name": "owner",
					"type": "address"
				}
			],
			"name": "balanceOf",
			"outputs": [
				{
					"internalType": "uint256",
					"name": "",
					"type": "uint256"
				}
			],
			"stateMutability": "view",
			"type": "function"
		},
		{
			"inputs": [
				{
					"internalType": "address",
					"name": "to",
					"type": "address"
				},
				{
					"internalType": "uint256",
					"name": "numToMint",
					"type": "uint256"
				}
			],
			"name": "batchMintCreatures",
			"outputs": [],
			"stateMutability": "nonpayable",
			"type": "function"
		},
		{
			"inputs": [],
			"name": "commonMinted",
			"outputs": [
				{
					"internalType": "uint256",
					"name": "",
					"type": "uint256"
				}
			],
			"stateMutability": "view",
			"type": "function"
		},
		{
			"inputs": [
				{
					"internalType": "uint256",
					"name": "tokenId",
					"type": "uint256"
				}
			],
			"name": "getApproved",
			"outputs": [
				{
					"internalType": "address",
					"name": "",
					"type": "address"
				}
			],
			"stateMutability": "view",
			"type": "function"
		},
		{
			"inputs": [
				{
					"internalType": "address",
					"name": "owner",
					"type": "address"
				},
				{
					"internalType": "address",
					"name": "operator",
					"type": "address"
				}
			],
			"name": "isApprovedForAll",
			"outputs": [
				{
					"internalType": "bool",
					"name": "",
					"type": "bool"
				}
			],
			"stateMutability": "view",
			"type": "function"
		},
		{
			"inputs": [],
			"name": "legendaryMinted",
			"outputs": [
				{
					"internalType": "uint256",
					"name": "",
					"type": "uint256"
				}
			],
			"stateMutability": "view",
			"type": "function"
		},
		{
			"inputs": [
				{
					"internalType": "address",
					"name": "to",
					"type": "address"
				},
				{
					"internalType": "uint256",
					"name": "rarityTier",
					"type": "uint256"
				},
				{
					"internalType": "string",
					"name": "tokenURI",
					"type": "string"
				}
			],
			"name": "mintCreatureWithRarity",
			"outputs": [],
			"stateMutability": "nonpayable",
			"type": "function"
		},
		{
			"inputs": [],
			"name": "name",
			"outputs": [
				{
					"internalType": "string",
					"name": "",
					"type": "string"
				}
			],
			"stateMutability": "view",
			"type": "function"
		},
		{
			"inputs": [],
			"name": "owner",
			"outputs": [
				{
					"internalType": "address",
					"name": "",
					"type": "address"
				}
			],
			"stateMutability": "view",
			"type": "function"
		},
		{
			"inputs": [
				{
					"internalType": "uint256",
					"name": "tokenId",
					"type": "uint256"
				}
			],
			"name": "ownerOf",
			"outputs": [
				{
					"internalType": "address",
					"name": "",
					"type": "address"
				}
			],
			"stateMutability": "view",
			"type": "function"
		},
		{
			"inputs": [],
			"name": "rareMinted",
			"outputs": [
				{
					"internalType": "uint256",
					"name": "",
					"type": "uint256"
				}
			],
			"stateMutability": "view",
			"type": "function"
		},
		{
			"inputs": [],
			"name": "renounceOwnership",
			"outputs": [],
			"stateMutability": "nonpayable",
			"type": "function"
		},
		{
			"inputs": [
				{
					"internalType": "address",
					"name": "from",
					"type": "address"
				},
				{
					"internalType": "address",
					"name": "to",
					"type": "address"
				},
				{
					"internalType": "uint256",
					"name": "tokenId",
					"type": "uint256"
				}
			],
			"name": "safeTransferFrom",
			"outputs": [],
			"stateMutability": "nonpayable",
			"type": "function"
		},
		{
			"inputs": [
				{
					"internalType": "address",
					"name": "from",
					"type": "address"
				},
				{
					"internalType": "address",
					"name": "to",
					"type": "address"
				},
				{
					"internalType": "uint256",
					"name": "tokenId",
					"type": "uint256"
				},
				{
					"internalType": "bytes",
					"name": "data",
					"type": "bytes"
				}
			],
			"name": "safeTransferFrom",
			"outputs": [],
			"stateMutability": "nonpayable",
			"type": "function"
		},
		{
			"inputs": [
				{
					"internalType": "address",
					"name": "operator",
					"type": "address"
				},
				{
					"internalType": "bool",
					"name": "approved",
					"type": "bool"
				}
			],
			"name": "setApprovalForAll",
			"outputs": [],
			"stateMutability": "nonpayable",
			"type": "function"
		},
		{
			"inputs": [
				{
					"internalType": "bytes4",
					"name": "interfaceId",
					"type": "bytes4"
				}
			],
			"name": "supportsInterface",
			"outputs": [
				{
					"internalType": "bool",
					"name": "",
					"type": "bool"
				}
			],
			"stateMutability": "view",
			"type": "function"
		},
		{
			"inputs": [],
			"name": "symbol",
			"outputs": [
				{
					"internalType": "string",
					"name": "",
					"type": "string"
				}
			],
			"stateMutability": "view",
			"type": "function"
		},
		{
			"inputs": [
				{
					"internalType": "uint256",
					"name": "",
					"type": "uint256"
				}
			],
			"name": "tokenRarity",
			"outputs": [
				{
					"internalType": "uint256",
					"name": "",
					"type": "uint256"
				}
			],
			"stateMutability": "view",
			"type": "function"
		},
		{
			"inputs": [
				{
					"internalType": "uint256",
					"name": "tokenId",
					"type": "uint256"
				}
			],
			"name": "tokenURI",
			"outputs": [
				{
					"internalType": "string",
					"name": "",
					"type": "string"
				}
			],
			"stateMutability": "view",
			"type": "function"
		},
		{
			"inputs": [
				{
					"internalType": "address",
					"name": "from",
					"type": "address"
				},
				{
					"internalType": "address",
					"name": "to",
					"type": "address"
				},
				{
					"internalType": "uint256",
					"name": "tokenId",
					"type": "uint256"
				}
			],
			"name": "transferFrom",
			"outputs": [],
			"stateMutability": "nonpayable",
			"type": "function"
		},
		{
			"inputs": [
				{
					"internalType": "address",
					"name": "newOwner",
					"type": "address"
				}
			],
			"name": "transferOwnership",
			"outputs": [],
			"stateMutability": "nonpayable",
			"type": "function"
		}
	]
}